S020000064656D6F5F666C617368776172655F7374617469635F69702E7372656324
S11300006804FE1F1D320000053100002D3200007F
S11300102D3200002D3200002D3200002D32000060
S1130020000000000000000000000000D1110000EA
S11300302D32000000000000E9110000451200000C
S1070040E12C0000AB
S113004403000000540000000700000078000000D2
S113005400000090000000900001000D8004FE1FC9
S113006424D7FE1F0000000330D7FE1F30D7FE1F25
S113007400000003000000900000009000000060F5
S113008400010C0D000000900000009000001040DE
S11300940001020D000000900000009040040000E4
S11300A40001010D0000FE1F0000FE1F000000609F
S11300B400010C030000FE1F0000FE1F000010409E
S11300C4000002030000FE1F6800FE1F400400003D
S11300D40000010328D7FE1F30D7FE1FB004000020
S10700E40000010310
S11300E81000000000000000017A5200017C0E019B
S10B00F81B0C0D0000000000C8
S1070400FFFFFFFFF8
S1070404FFFDFFFFF6
S113044054CC0000001122334455C0A80176FFFFAC
S1130450FF00C0A80101C0A80101001122334455C6
S1130460800DFE1F8013FE1F8019FE1F801FFE1FBC
S11304708025FE1F802BFE1F8031FE1F8037FE1F4C
S1130480283EFE1F4C00FE1F4000FE1F94E40000A7
S11304900400000080000000040000008000000050
S10B04A0E8030000102700002E
S10B04B001000000000000003F
S11304C0F0B503AF2DE9000F83B040F2804300EB99
S11304D04000C1F6FE7303EBC008D8F82C00934625
S11304E00228894616D0012809D0002877D144462D
S11304F054F8245F6068A8426AD9E9436CE0444632
S113050054F8245F6168A9423BD9EA43D8F8200033
S113051011443BE058F8244F002608F104000290EF
S1130520A8F1040AA8F10800019000BF0298E24370
S11305300168DAF80000A1421144A0EB040598BF59
S11305400144A94238BF0D4601985D45006828BFA3
S11305505D46204449462A460BF0D3FCDAF80000F5
S11305602919ABEB050B0C1A2E44A94418BF0C46F1
S1130570BBF1000FBFF35F8F4046C8F80040D5D1F0
S113058053E0D8F82000EA4311440144594538BFE8
S11305908B46461B58F81C0FB345284408D24946DD
S11305A05A460BF0AEFCBFF35F8F0BEB050028E05F
S11305B04946324645460BF0A4FCABEB06082868D6
S11305C009EB060142460BF09CFCBFF35F8F29E068
S11305D0D8F82010EA4310440844584501D20026B4
S11305E023E058F81C0FD8F8041028444E1BB345D8
S11305F009D249465A460BF084FC05EB0B00BFF3C5
S11306005F8F206010E04946324645460BF079FC86
S1130610ABEB0608286809EB060142460BF071FCB7
S1130620BFF35F8FC4F800805E46304603B0BDE878
S1130630000FF0BDF0B503AF4DF8048D40F28045D6
S1130640C1F6FE752B780C46532B36D080462846CF
S1130650A82116460BF051FC0320286168614DF671
S1130660593140F22850C0F20001C1F6FE70A96170
S1130670E8614FF4006028620020A8626862E862C2
S1130680296640F62851C1F6FE7169661021A966F3
S11306904CF22621C0F200012867E8666867BFF3C0
S11306A05F8F00BF80F00F028A5C2A54013010284B
S11306B0F8D132464046BFF35F8FEFF311854FF018
S11306C0200181F311882146FFF7FAFE85F3118892
S11306D05DF8048BF0BDD4D4F0B503AF2DE9000F61
S11306E09BB00C4606A9169140214CF6CD4C93467E
S11306F01791002104901A900DF15808CCF6CC4CB7
S11307000020CDE9181112E0011DCBF8001001689A
S113071040465346CDE9005900F034FA4CF6CD4C2E
S1130720CCF6CC4C1998B0F1FF3F40F3278214F873
S1130730011B25291CD0002900F01282DDE91720B5
S1130740431C934207D8169A11541998179A0130EA
S11307501990184618939042E4D116991A98FFF705
S113076069FF1899884240F0F88100201890D5E775
S11307704FF000092178A1F123030D2B14D8022294
S1130780DFE803F00C121212121212120E121012DF
S1130790120749EA02090134ECE700BF0822F8E72E
S11307A00422F6E70122F4E7A1F13A02002512F14E
S11307B00A0F0FD30A4600BF14F8011F05EB850387
S11307C002EB4302A2F13005A1F13A0212F10B0F40
S11307D00A46F1D82E290FD1224612F8011F2A29E0
S11307E00ED1DBF8001002340A1DCBF80020D1F83A
S11307F000A0012120E000BF00214FF0000A1BE00F
S1130800A1F13A0313F10A0F03D200214FF0000AB9
S113081011E04FF0000A00BF0AEB8A0301EB430129
S113082012F8013FA1F1300AA3F13A0111F10B0FC3
S11308301946F1D801211446621E00BF12F8013F87
S113084003F0FB06682EF9D0A3F15806202E02F11E
S1130850010426D8DFE806F012111111111111114B
S1130860111111163C111111111111111111111144
S11308706B11117911381111120053E7DBF80000E4
S1130880102241E7DDE91720DBF80030411C1E1D72
S11308909142CBF800603FF65EAF1A68169B1A547B
S11308A00BE0252B7FF43EAFDDE91720411C91427C
S11308B03FF651AF169A252313541998179A01300D
S11308C019900846189146E7DBF800000A221BE756
S11308D0DBF800104FF001080A1DCBF8002009686E
S11308E00029C1F100020E4648BF11460A290392AD
S11308F008DB00BFA1FB0C2363294FEAD30108F1F5
S11309000108F7D8D045CDF814B098BFD046002DD3
S11309105ED00021002E48BF012109F0040241EA03
S11309209201A5EB010B5FEA897556D479E0DBF8F7
S113093000001022011DCBF8001001684046082376
S113094000260825CDE90056E6E6DBF80020C1467E
S1130950131DCBF8003015684DF26A132A46002D9A
S113096018BF012201EA0208C0F2000308BF1D46B5
S11309700CE000BF19984CF6CD4C0021CCF6CC4CC1
S11309801891B0F1FF3FAAF1010A1FDD15F8011B10
S1130990E1B1BAFA8AF2520912EA080216D1DDE983
S11309A017235E1C964207D81698C1541998179AB3
S11309B001303346189619909342E2D116991A9849
S11309C0FFF738FE18998842D4D0C6E0C846A9E695
S11309D04FF0000B5FEA897523D5BAF1000F20D1DF
S11309E0002800F1B580B6F1FF3F4CDD5FEA4971A4
S11309F070D5DDE917214B1C934208D816982B2299
S1130A0042541998179A0130194618931990914233
S1130A1058D116991A98FFF70DFE189988424AD0B2
S1130A209BE05FEAC971DBD1BBF1000FD8D002951E
S1130A3004E000BF0028AB4600F18A80ABF1010559
S1130A405D4538BFD84540D2DDE917214B1C9342A0
S1130A5008D81698202242541998179A013019463A
S1130A60189319909142E5D116991A98FFF7E2FD6F
S1130A701899884271D119984CF6CD4C0021CCF6C6
S1130A80CC4C1891D6E7DDE917214B1C934208D8CA
S1130A9016982D2242541998179A01301946189322
S1130AA01990914213D116991A98FFF7C3FD18991A
S1130AB0039E884251D10020189019984CF6CD4CD1
S1130AC0CCF6CC4C002805D542E0029D88E7039E75
S1130AD000283DD4002D0CD40DF158084046314671
S1130AE00A225346CDE900B900F04CF8DDF814B001
S1130AF014E609F0010151EA0A01EDD1BBF1000F3E
S1130B00EAD0ABF101055D4538BFD845E4D2DDE953
S1130B1017214B1C934208D8169830224254199836
S1130B20179A0130194618931990914209D11699D0
S1130B301A98FFF77FFD189988420ED11998002161
S1130B4018914CF6CD4C0028AB46CCF6CC4CD8D5FD
S1130B50DDF814B00DF15808E4E54FF0FF300DE076
S1130B6040B1189A42B1049806A9FFF763FDDDE984
S1130B70181002E0002001E0002108441BB0BDE889
S1130B80000FF0BDF0B503AF2DE9000F81B0D7F829
S1130B9008A01E4615468846914204464FF00109B6
S1130BA006D34046B0FBF5F009F10109A842F9D299
S1130BB0F968B14598BFB146BAF1000F36D011F0CB
S1130BC0010033D14FF0200B880748BF4FF0300BA2
S1130BD02020002E18BF834604E000BFE068B0F177
S1130BE0FF3F23DDBAF1000F20D0D1451ED2D4E956
S1130BF00120411C914208D8226802F800B0E06844
S1130C0062680130E0600846A1609042AAF1010ADE
S1130C10E4D121682069FFF70DFDA168884202D163
S1130C200020A060DAE74FF0FF30E060E0680028C1
S1130C303ED44FF0010B02E0013E0BFB05FB022EFC
S1130C40FAD2B8FBFBF1A942F7D2A2686168B8FBFB
S1130C50FBF6531C8B420CD84EF2F430C0F2000069
S1130C60805D21688854E068616801301A46A36099
S1130C70E0608A4209D121682069FFF7DBFCA268A1
S1130C8090420CD1E0680022A26000280AD4BBFB89
S1130C90F5F106FB1B88AB458B46D7D202E04FF03B
S1130CA0FF30E060F968C90718BFBAF1000F03D13B
S1130CB001B0BDE8000FF0BD2025AAF1010656459C
S1130CC038BFD145F4D26168531C8B4207D82068E1
S1130CD08554E068616801301A46A360E0608A4286
S1130CE009D121682069FFF7A5FCA168884207D1D2
S1130CF0E0680022A260B0F1FF3FB246DDDCD7E736
S1130D004FF0FF30E060D3E782B080B56F4682B029
S1130D10C7E9022307F10802019201AAFFF7DCFCEC
S1130D2002B0BDE8804002B07047D4D4022818BF96
S1130D30704743F638604EF21451C1F6FE70C0F2AB
S1130D40000100F0BBBDD4D4002840F640504FF061
S1130D500801C1F6FE7008BF042142580132425016
S1130D607047D4D4D0B502AF84B04DF2F841C0F28C
S1130D7000010020FFF7C8FF4DF6E861C0F2000152
S1130D800020FFF7C1FF40F20400C1F6FE70817835
S1130D900278437890F803C090F804E044798DE831
S1130DA002504DF24131C0F2000100200394FFF7DC
S1130DB0ABFF40F63850C1F6FE7000684CF66D612A
S1130DC04DF2E432C0F20001C0F20002002808BF74
S1130DD00A464CF69E61C0F200010020FFF794FF22
S1130DE040F20A00C1F6FE700278437890F802C01F
S1130DF0C4784DF64661C0F200010020CDE900C47C
S1130E00FFF782FF40F20E00C1F6FE7002784378CD
S1130E1090F802C0C4784CF2D531C0F20001002031
S1130E20CDE900C4FFF770FF40F21200C1F6FE7076
S1130E300278437890F802C0C4784DF21521C0F2CC
S1130E4000010020CDE900C4FFF75EFF40F2160068
S1130E50C1F6FE700278437890F802C0C4784EF26E
S1130E607C11C0F200010020CDE900C4FFF74CFF63
S1130E7004B0D0BD80B56F4684B00020039003A8B1
S1130E8002F0EEF89DF80D609DF80E509DF80F30BD
S1130E904CF208414CF64C12C0F20001C0F20002C0
S1130EA00020CDE90056FFF72FFF4CF69E11C0F24B
S1130EB000010020FFF728FFFFF754FF40F204066B
S1130EC040F20A0040F20E0140F2120240F2160310
S1130ED0C1F6FE76C1F6FE70C1F6FE71C1F6FE7271
S1130EE0C1F6FE73009605F0D7FA70B94DF6060107
S1130EF04EF2AF124DF2D253C0F20001C0F2000222
S1130F00C0F200030020FFF7FFFE4CF23721C0F2CD
S1130F1000010020FFF7F8FE40F64C5940F2000AA9
S1130F2040F63C5B4CF6DA464CF6C86440F6405852
S1130F30C1F6FE79C1F6FE7AC1F6FE7BC0F2000668
S1130F40C0F20004C1F6FE7807E000BF002031467D
S1130F50FFF7DAFE642003F075FC05F0D7FE4EF2CD
S1130F609441C0F2000109680546084601F074FB8B
S1130F70D9F80010012D08BF00280FD08807E5D448
S1130F804DF629710020C0F20001FFF7BDFED9F82B
S1130F90000040F00200C9F80000DBE7C8070CD1EC
S1130FA04CF650110020C0F20001FFF7ADFED9F855
S1130FB0000040F00101C9F80010480708D4DAF82D
S1130FC000204DF624110020C0F20001FFF79CFE22
S1130FD0DBF80000632821D8DAF8000007F07AF97A
S1130FE00821642205F0D4FC0028404608BF0830DC
S1130FF00268214602F1010208BF31460260002066
S1131000FFF782FEDBF800000130CBF800000A2075
S113101003F018FCDBF800006428DDD399F8000025
S1131020400797D4DAF800204DF604110020C0F2EE
S11310300001FFF769FE98E82C004DF64E510020A0
S1131040C0F200010095FFF75FFED9F8000040F000
S11310500400C9F800007DE77047D4D4FFF7FCBF53
S113106000BE7047B0B502AF43F64064C1F6FE74EB
S113107020684FF0FF3102F09BFF012803D0206865
S11310800021FFF7EDFF43F64460C1F6FE700178DE
S113109001B1B0BD01210170FFF7E0FF43F64865DF
S11310A0C1F6FE7528680138286008BFB0BD206805
S11310B000210022002302F04BFD0128F2D0206819
S11310C00021FFF7CDFFEDE780B56F4643F648609A
S11310D0C1F6FE700021016043F64460C1F6FE7063
S11310E043F64C620170C1F6FE724FF48070012128
S11310F002F0E0FC43F64061C1F6FE71086018B9E5
S113110000200021FFF7ACFF00F020F803F056FCAC
S1131110002080BD43F69463C1F6FE73036043F67A
S1131120F460C1F6FE700860802010607047D4D46B
S113113044F2F403C1F6FE73036044F25410C1F6A2
S1131140FE700860802010607047D4D480B56F466C
S113115084B043F64860C1F6FE70016844F2543C22
S1131160013101604DF23070C1F6FE700121CDE90C
S1131170001041F2BD104DF2E9514EF2A043C1F608
S1131180FE7CC0F20000C0F20001C0F200034FF484
S11311908062CDF808C003F07FF844F2B431C1F6A0
S11311A0FE71002808601CBF04B080BD002000212F
S11311B004B0BDE88040FFF753BFD4D4D0B502AF2C
S11311C00446FFF74FFF2046BDE8D040FFF752BE6C
S11311D01EF0040F0CBFEFF30880EFF30980014900
S11311E0084700006D1200000D4B1968EFF30982E7
S11311F01EF0100F08BF22ED108A22E9F04F0A609A
S11312004FF0100080F31188BFF34F8FBFF36F8F3F
S113121003F07CFB4FF0000080F3118800F002B86B
S11312208CC4FE1F064801680A68B2E8F04F1EF03D
S1131230100F08BFB2EC108A82F3098870470000CF
S11312408CC4FE1FD0B502AFEFF31184102080F3DD
S1131250118803F055FC30B14EF60450CEF2000074
S11312604FF08051016084F31188D0BD806910F87B
S1131270020C022808BFFFF7D5BF042838BF704707
S113128080B56F464CF281604DF2E8324CF6601343
S1131290C0F20000C0F20002C0F200034FF47E71FD
S11312A001F0E6FE014641F2C92022F00102C0F23B
S11312B000004FF0807C01E905106FF00202A1F1FB
S11312C0440041E90923704700BE00BFFEE7D4D4BF
S11312D080B56F464EF62250CEF20000F021017028
S11312E000F016F84EF63470CEF20000016841F0BA
S11312F04041016062B6BFF36F8FEFF3148C2CF0A2
S1131300040C8CF31488BFF36F8F02DF00BEFDE77B
S113131044F21C40C1F6FE70006844F6D351C1F299
S11313206201A0FB01014FF0FF3000EB911100209E
S1131330B0EB116F18BF70474EF21002CEF20002EC
S113134051604EF62351CEF20001F0230B709060F1
S1131350072010607047D4D41021EFF3118081F37B
S1131360118844F2B831C1F6FE710A68531C002A90
S11313700B6018BF704744F2BC31C1F6FE710860BF
S11313804EF60450CEF200000068C00500D170474C
S113139080B56F464CF281604CF2A7624DF248234F
S11313A0C0F20000C0F20002C0F2000340F2A44107
S11313B001F05EFE44F2B830C1F6FE70016859B126
S11313C00139016018BF704744F2BC30C1F6FE70A9
S11313D0006880F31188704780B56F464CF28160D5
S11313E04DF63B724CF22D33C0F20000C0F2000205
S11313F0C0F2000340F2AD4101F03AFED0B502AFB5
S113140072B64EF20C04C4F2010403F0EBF8B4F922
S11314100000B0F1FF3F09DDBFF34F8F30BFBFF3D2
S11314206F8F62B6BFF36F8F72B61FE04EF2FE315C
S1131430C4F201010A884AF2025CCFF6FF7C002361
S113144042F42542A1F800C023800A80BFF34F8FE5
S113145030BFBFF36F8F62B6BFF36F8F72B60A8867
S1131460A1F800C0208042F42540088062B6BDE89F
S1131470D04003F017B9D4D480B56F46EFF303809E
S1131480103840B2002807D4E421C0F2E00161F32F
S11314901F2000780F2817D94EF60C50CEF200000A
S11314A00068400558BF80BD4CF281604DF6623241
S11314B04CF66733C0F20000C0F20002C0F2000331
S11314C040F2216101F0D4FD4CF281604DF66232AC
S11314D04DF69463C0F20000C0F20002C0F20003B3
S11314E040F20F6101F0C4FD80B56F4682B04169DE
S11314F00022019219B30279D31E022B14D2086878
S11315000068D0B101AA002103F054FE0198A0B1F3
S11315104EF60450CEF200004FF080510160BFF34C
S11315204F8FBFF36F8F08E0092A06D10069006866
S113153002B0BDE8804005F0D9BB02B080BD4DF2D9
S1131540FA304DF622024DF22353C0F20000C0F2ED
S11315500002C0F2000340F2071101F089FDD4D467
S1131560F0B503AF4DF8048D82B040F24801C1F6E6
S1131570FE710E68002E5CD00446D6E9000181603D
S11315800D68002D64D069684878012801D100BF36
S1131590FEE7AA6828681268904708B10E281FD190
S11315A0A96828688969884735688046296881B9A7
S11315B070684DF27051D0E901C241F29D70C0F2E1
S11315C00000C0F200012346CDE900C502F09EFFF1
S11315D0356855F8040F40B1B8F1000F24D117E075
S11315E0A9682868496888471EE070684DF2F4517C
S11315F0D0E903C241F64D00C0F20000C0F2000180
S11316002346CDE900C502F081FFB8F1000F0BD1EC
S11316103068016841B1416831B144F25031C0F2DF
S11316205401C160012000E0002002B05DF8048B89
S1131630F0BD4DF2FA304EF2C1124DF22353C0F216
S11316400000C0F20002C0F20003722101F010FD9C
S11316504DF2FA304EF2C1124CF69323C0F2000060
S1131660C0F20002C0F20003772101F001FDD4D4DE
S1131670F0B503AF4DF804BD40F24800C1F6FE706A
S113168000688B6A40680C4600683B2B9CBF3C2377
S1131690A362816800684D69616A16461A46A847C4
S11316A0012E054602D1204604F038F9B5FA85F03A
S11316B040095DF804BBF0BD80B56F4640F24800B8
S11316C0C1F6FE7000684068006881680068896936
S11316D08847B0FA80F0400980BDD4D4F0B503AF98
S11316E04DF804BD69B344F2C0360546C1F6FE7632
S11316F04DF64D720C46C0F20002304611212B46C5
S113170009F074F8002041F26151C4E90800C0F204
S1131710000141F2716241F2B96304F1080CC4E9B9
S11317200500E0612046C0F20002C0F20003C4E9F3
S113173000658CE80E0006F085F920465DF804BBD0
S1131740F0BD4DF2FA304DF24E524EF26933C0F212
S11317500000C0F20002C0F200034FF4997101F0DE
S113176087FCD4D4B0B502AF044608F0E2FF0546C6
S113177008F0DFFFC5EA004101202160B0BDD4D4E8
S1131780D0B502AF82B0002001AC01902046FFF733
S1131790E9FF01980028F9D002B0D0BD80B56F46AA
S11317A084B040F2480B04464FF0000AC1F6FE7BB9
S11317B00DF104090DF1080803E000BF304604F000
S11317C0ADF8002000214FF0FF3203F095FC40F209
S11317D0EA500021CDF804A004F028F80028F0D045
S11317E0064600BFDBF800004A464068006881688E
S11317F000688B68716A984705460198716AC6E962
S11318000A04204606F04CFAB5F57A6F306301D02D
S1131810002DD3D10028D1D0706A05F07BF90128BE
S1131820CCD101208DF8080040460021039604F035
S1131830FFFD0128C2D140F2EA500021CDF804A0F6
S113184003F0F4FF06460028CCD1BAE780B56F4612
S113185084B040F24801C1F6FE710E68002271683E
S113186040F6A17A0C6841F2883B0DF1080940F674
S1131870A1758DF808200190039008E08046484641
S1131880002104F0D5FD012808BF45467168486968
S113189002F0D8FFA1682068896988478542F5D09D
S11318A0584518BF5045E9D00028EFD10198006A87
S11318B004F086FD71680025E9E7D4D480B56F464D
S11318C045F25422C5F24F020260084600F002F8C5
S11318D0002080BDF0B503AF4DF804BD044600F010
S11318E05FF844F2084CEFF31080012181F3108873
S11318F0C1F6FE7CDCF8001039B940F60351C4F29D
S1131900040100220A7040220A70DCF80010013140
S1131910CCF8001080F31088208820B340F6000E25
S11319200021C4F2040E07E00EEB801040F82230D0
S113193020880131814216D2606800EBC10292888E
S113194050F83130100ADD03D2B2EDD50EEB80151C
S113195055F8226026F4803645F8226023F4803658
S113196045F82260E0E7EFF31081012080F310884E
S1131970DCF8000020B1DCF800000138CCF80000ED
S1131980DCF8000038B940F60350C4F20400002229
S113199002708022027081F310885DF804BBF0BDF0
S11319A0F0B503AF2DE9000F81B00446008800288C
S11319B061D044F240084EF2BB494EF2225BC4F2BD
S11319C004080026C4F20109C0F2000B04E000BFC1
S11319D02088013686424ED2002508E008F815001A
S11319E0C820012101F048FB0135032DF0D06068C7
S11319F03BF8152000EBC60189889142F4D150F8D8
S1131A00360099F80010012200F0B85002FA05FAE5
S1131A10B0F1807F0AEA010016D158B9012001F023
S1131A20D5FB99F8000040EA0A0089F8000001207B
S1131A3001F0A0FB18F915000028D5D418F81500FA
S1131A4040F08000CAE700BF58B1012001F0BEFB9E
S1131A5099F8000020EA0A0089F80000012001F04A
S1131A6089FB18F91500B0F1FF3FBDDC18F815002B
S1131A7000F07F00B2E701B0BDE8000FF0BDD4D4A0
S1131A80F0B503AF4DF8048D82B00D4604460878D6
S1131A9040F60051C4F2040101EB802000F5083047
S1131AA000F5A1500026C4E90150E660A87B4FF47C
S1131AB00042B0FA80F0400900010870012020744F
S1131AC020460021019600F037F90DF1040800BF0B
S1131AD020460021424600F04BF89DF80510686846
S1131AE0090606F1010601D58642F1D3864206D2E3
S1131AF044F65900C5F250202060002000E0142074
S1131B0002B05DF8048BF0BD002201460274C0E906
S1131B10002282600020CA607047D4D4F0B503AFBD
S1131B204DF8048D82B0054601200C460026287429
S1131B30284600214FF40042019600F0FDF80DF113
S1131B40040800BF28460021424600F011F89DF821
S1131B5005006168000606F1010601D58E42F1D345
S1131B6014208E4238BF002002B05DF8048BF0BD13
S1131B70F0B503AF4DF8048D9046054620230620AA
S1131B80072203E09EB2013B012E28D96E68B66895
S1131B90012EF7DBAC680136013E012E2060FBD834
S1131BA06E68B668012EEDDB013600BF013E012EE2
S1131BB02260FBD86E68B668012EE3DB013600BFF5
S1131BC0013E012E2260FBD86E68B668012ED9DB77
S1131BD0013600BF013E012E2060FBD8D2E7284623
S1131BE0022200F05DFA6868816801294EDBA8686A
S1131BF001310022013901290260FBD86968896832
S1131C00012943DB01310122013901290260FBD89A
S1131C1069688968012939DB013101220139012907
S1131C200260FBD86968896801292FDB0131002231
S1131C30013901290260FBD868688168012925DB24
S1131C40A8680131002200BF013901290260FBD8D4
S1131C5069688968012919DB0131012201390129E7
S1131C600260FBD86968896801290FDB0131012210
S1131C70013901290260FBD869688968012905DBFB
S1131C8001310022013901290260FBD8A868002231
S1131C90102301244FF0000C07E000BF0668C6F3D0
S1131CA0C00646EA4C0C013B2BD96E68B668012E7F
S1131CB0F4DB0136013E012E0260FBD86E68B66883
S1131CC00168012EC1F3C00141EA4C0CEBDB013683
S1131CD0013E012E0460FBD869688E68012EE2DBA8
S1131CE0013600BF013E012E0460FBD869688E688E
S1131CF0012ED8DB013600BF013E012E0260FBD865
S1131D00D1E768688368012B0FDBA8689A0F9B00F2
S1131D10002500BF591E62F10006D3F1010375EBE3
S1131D2002020B4632460560F4D30020C8F800C016
S1131D305DF8048BF0BDD4D4F0B503AF2DE9000BEE
S1131D409146804620230620072203E09EB2013BF1
S1131D50012E2AD9D8F80460B568012DF6DBD8F82D
S1131D6008600135013D012D3060FBD8D8F80450DE
S1131D70AD68012DEADB0135013D012D3260FBD850
S1131D80D8F80450AD68012DE0DB0135013D012D8B
S1131D903260FBD8D8F80450AD68012DD6DB01358C
S1131DA0013D012D3060FBD8D0E74046012200F010
S1131DB077F9D8F80400816801295DDBD8F80800B8
S1131DC001310622013901290260FBD8D8F8041038
S1131DD08968012950DB0131072200BF013901293B
S1131DE00260FBD8D8F804108968012944DB01316A
S1131DF0072200BF013901290260FBD8D8F804107A
S1131E008968012938DB0131062200BF0139012923
S1131E100260FBD8D8F80400816801292CDBD8F8CB
S1131E2008000131022200BF013901290260FBD8F8
S1131E30D8F80410896801291EDB0131032200BF90
S1131E40013901290260FBD8D8F8041089680129F6
S1131E5012DB0131032200BF013901290260FBD8E2
S1131E60D8F804108968012906DB0131022200BF79
S1131E70013901290260FBD8102002214FF0030C24
S1131E800623072404E000BF01384FEA490958D962
S1131E90D8E901565FEA0942AD682BD4012DF3DB82
S1131EA0013500BF013D012D3160FBD8D8F8042075
S1131EB09568012DE8DB0135013D012DC6F800C010
S1131EC0FAD8D8F804209568012DDDDB013500BF70
S1131ED0013D012DC6F800C0FAD8D8F80420956851
S1131EE0012DD1DB013500BF013D012D3160FBD84F
S1131EF0CAE700BF012DC7DB013500BF013D012D3D
S1131F003360FBD8D8F804209568012DBCDB01357B
S1131F10013D012D3460FBD8D8F804209568012DCB
S1131F20B2DB0135013D012D3460FBD8D8F8042023
S1131F309568012DA8DB0135013D012D3360FBD8E7
S1131F40A2E7D8F804008268012A10DBD8F8080058
S1131F50910F9200002300BF561E61F10005D2F1DB
S1131F60010273EB0101324629460360F4D30020D9
S1131F70BDE8000BF0BDD4D4D0B502AF82B00446A6
S1131F80406840F6E152407B04210028204608BF07
S1131F9040F2E112E260FFF7CFFE204600214FF449
S1131FA09052FFF7C9FE01AA20460421FFF7E0FD85
S1131FB0002002B0D0BDD4D4F0B503AF2DE9000B9E
S1131FC082B00646002001AD144688460190304692
S1131FD001212A469946FFF7CBFD304601212A46C6
S1131FE0FFF7C6FD0198410702D441F288303AE078
S1131FF0F1684A0506D409050BD480060FD441F2D2
S1132000893030E0216841F002012160F16809055E
S1132010F3D5216841F0010121608006EFD501AAC2
S113202030460521FFF7A4FD0198410544BF022174
S1132030C9F80010010505D5D9F8001041F00101D7
S1132040C9F80010C1050AD441064FF0020158BF77
S1132050C0F34011000648BF032109B9C5E70421B4
S1132060C8F80010002002B0BDE8000BF0BDD4D4C5
S1132070B0B502AF82B001AD01212A460446FFF794
S113208077FD204601212A46FFF772FD019840079B
S11320904FF0000058BF41F2883002B0B0BDD4D434
S11320A0F0B503AF4DF8048D4368022A5B694FF421
S11320B0A0469A6808BF4FF4C046127846EA8101E8
S11320C041EAC2114FF00E0E02234FF0030C062218
S11320D04FF0070805E000BFBEF1010E4FEA4101D1
S11320E053D9D0E901650C04B66827D4012EF3DB7B
S11320F0013600BF013E012E2B60FBD84468A66860
S1132100012EE9DB013600BF013E012EC5F800C0F7
S1132110FAD84468A668012EDEDB0136013E012EA2
S1132120C5F800C0FAD84468A668012ED4DB01368D
S1132130013E012E2B60FBD8CEE700BF012ECBDB86
S1132140013600BF013E012E2A60FBD84468A66810
S1132150012EC1DB013600BF013E012EC5F800800F
S1132160FAD84468A668012EB6DB0136013E012E7A
S1132170C5F80080FAD84468A668012EACDB0136A5
S1132180013E012E2A60FBD8A6E75DF8048BF0BD62
S1132190F0B503AF2DE9000F81B00446006844F6A2
S11321A04502C4F25452904201D10E20D8E00D46AB
S11321B04E6B087844F20011C4F2060101EB802052
S11321C020610090287847F2000BC4F2040B0BEB5B
S11321D0002000F5E83A0020C4F814A06560A0616E
S11321E0697D3068090109F088FE6068017D7068C6
S11321F0090109F082FE60688169E1B1417829B181
S113220090F81580B8F1000F07D114E0017D407DEE
S113221000EB0108B8F1000F0DD04FF0000900BF2A
S11322206068D0E9060150F8290009F066FE09F15A
S11322300109C845F4D1A86A0121E061286B6062F4
S113224000202062EFF3108081F310886268127816
S1132250DBF80030C2F10F02914023EA0101CBF810
S11322600010DBF8001080F310886069016841F009
S11322700101016044F21C40C1F6FE7000684EF298
S11322800011C0F2F551B1FBF0F00121013000F072
S1132290F3FE6068616980688A6F60F305028A678B
S11322A0606840798A6F00F0030022F4403242EA09
S11322B0004088676068C16A07C91268904741F2A4
S11322C0883188424AD000284AD16068C06A81684F
S11322D000684969884700993720086140F69F7073
S11322E0C4F2FF70CAF82800DAF830004EF2001287
S11322F040F48000CAF830006068CEF2000290F822
S1132300241090F920000901831883F8001344F283
S11323100C41C1F6FE7141F8204046F20031C4F28E
S1132320000151F8203023F4803341F8203051F873
S1132330201000F01F010123400903FA01F102EB10
S11323408003BFF35F8FC3F8801142F8201044F676
S11323504500C4F254502060002001E040F6A5700E
S113236001B0BDE8000FF0BDF0B503AF4DF8048D2A
S113237004464068D4E9045890F8201048B2002874
S113238013D401F01F00012202FA00F01C2202EA19
S1132390D1014EF28012CEF200028850BFF34F8F6B
S11323A0BFF36F8F606890F8200044F20C4140B294
S11323B0C1F6FE71002641F820606068C06A816839
S11323C0006849688847A869012120F00400A861D1
S11323D0D8F8300047F2000320F48000C8F8300039
S11323E02E60A661EFF3108081F310886268C4F256
S11323F0040312781D68C2F10F0291402943196049
S1132400196880F310882660002066605DF8048BEC
S1132410F0BDD4D4C37E012B1CBF40F6A17070471D
S1132420F0B503AF4DF804BD03691B689B0563D485
S113243085682B68002B39D44FF6604CCCF2FF7CB6
S1132440012409E043691E69012E18BF1C618568D7
S11324502B68B3F1FF3F29DD43689E7816B92E68D7
S1132460360628D42E68360116D5C37E012B48D1F2
S113247003691B689B053FD42B68002BE2D42B68AF
S113248003EA0C032B6083681E6846F000461E6056
S11324908368DB688360D5E7AC68AE885D797619BC
S11324A004D05B7893B300200C603AE04FF47A6078
S11324B05DF804BBF0BDC17E012922D10169096820
S11324C0890519D4296800290BD4296801EA0C016B
S11324D0296081680A6842F000420A608168C9681C
S11324E081604069016901291CBF0121016140F635
S11324F0A4705DF804BBF0BD40F6A2705DF804BBA7
S1132500F0BD40F6A1705DF804BBF0BD0546084679
S113251021461446324609F0F4FC284600F006F839
S1132520224616605DF804BBF0BDD4D4C17E0129F7
S11325301CBF40F6A170704701690968890544BF52
S113254040F6A270704781680A68002A0ED40A68AF
S11325504FF66043CCF2FF731A400A6081680A6840
S113256042F000420A608168C9688160406901697B
S1132570012904BF00207047012101610020704738
S113258082681368002B44BF40F6A67070479160C0
S113259081684FF660430A68CCF2FF731A400A6000
S11325A081680A6842F000420A608168CA68416929
S11325B08260086901281CBF01200861002070475F
S11325C0C37E012B1CBF40F6A1707047F0B503AF6A
S11325D04DF804BD03691B689B0520D40C46416873
S11325E04B780BB3012B04BFC1688C60C168CA80EF
S11325F0C1680A6822F040520A60C1680A6842F061
S113260030420A60C168CA684169C26088680128AA
S11326101CBF0120886000205DF804BBF0BD40F6BB
S1132620A2705DF804BBF0BDC3681E68002E02D41E
S1132630C969914204D240F6A3705DF804BBF0BDB1
S11326409968064608462146154609F05AFC716801
S11326502A464B783046C5E7F0B503AF2DE9000FA5
S113266087B0834640689BF81A10D0F8348001295B
S113267040F08880DBF81C0000218BF81A10F8B1B8
S1132680DBF820000DF1040930B1024692E87A40EB
S1132690CC468CE87A4000E0484600210171DBF822
S11326A0041009780160DBF824104161DBF81C1088
S11326B08847DBF8200000281CBF99E87E007EC014
S11326C09BF8180007F8350CDBF80490DBE9046A82
S11326D099F8201048B2002814D401F01F000122F8
S11326E002FA00F01C2202EAD1014EF28012CEF26C
S11326F000028850BFF34F8FBFF36F8FDBF80400E5
S113270090F8200044F20C4140B2C1F6FE7100255D
S113271041F82050DBF80400C06A81680068496809
S11327208847B069012120F00400B061DAF8300074
S113273047F2000320F48000CAF830003560CBF87B
S11327401850EFF3108081F31088DBF80420C4F2F2
S1132750040312781E68C2F10F02914031431960DC
S1132760196880F3108858464946CBE90055FFF7AD
S11327700FFD002840F0CD8017F8351CDBF804006D
S11327808BF81810C06A81680068C96988470146D7
S113279041F2883291429BF818104FF0000008BFB4
S11327A040F6A17004D1012909D10021012202E0DF
S11327B029B9012102228BF819208BF818109BF8F3
S11327C0191001291ED0022940F0A3800020DBF853
S11327D004108BF81900497DD8F80000090109F0AC
S11327E08CFBDBF80400017DD8F80400090109F032
S11327F084FBDBF804008169C9B3417821B3457DCA
S113280035BB34E00021DBF810208BF81910136875
S113281023F040031360136823F020031360DBF8F4
S11328201C208BF81B10002A73D0DBF820E00DF17C
S11328300409BEF1000F80463CD0724692E87B004A
S1132840CC468CE87B0036E0017D427D551875B19D
S1132850002600BFDBF80400D0E9060150F826008A
S113286009F04BFB0136B542F4D1DBF80400012139
S11328708BF81B10016958460022002500F094F8DB
S11328805846002100F082F928B102218BF81B5030
S11328908BF819103DE0DBF81C00C8B3DBF820000E
S11328A00DF1040800B384469CE87A40424682E86D
S11328B07A401AE0CE4602208EF80400DBF80400C9
S11328C00078CEF80000DBF82400CEF81400DBF822
S11328D01C1070468847DBF8200000281CBF99E8CC
S11328E07E007EC0404614E0404601210171DBF8C1
S11328F0041009780160DBF824104161DBF81C1036
S11329008847DBF8200000281CBF98E87E007EC0C2
S1132910002007B0BDE8000FF0BDD4D4D0B502AF9D
S11329200446C07E01280AD160680122016920465C
S113293000F03AF82046012100F028F910B140F6E1
S1132940A170D0BD6068C06A81680068C9698847A1
S1132950014641F288320020914208BF40F6A1703E
S1132960D0BDD4D442684369506BD3F8D8308BB10E
S1132970D0F804C0A3F11000604503D2107D0CEB25
S11329800010103882682AB1006800285EBF0A600F
S113299000207047222070478446C0E907130020B6
S11329A0CCF824207047D4D4F0B503AF2DE9000B44
S11329B08146D0E90450904603680E4643F0010274
S11329C0026044F21C40C1F6FE7000684EF2001230
S11329D0C0F2F552B2FBF0F00121013000F04CFBE3
S11329E0D9F80400D9F8141080688A6F60F30502DE
S11329F08A67D9F8040040798A6F00F0030022F452
S1132A00403242EA0040886771783078B27809042D
S1132A1041EA0060F37840EA02203179727918447F
S1132A2042EA0121C5F8C000C5F8C810D9F804303D
S1132A30597D586B89B3002110224FF0004C0026B9
S1132A400568DC69AB1823F80A4C23F80C1C0468ED
S1132A50144443F8044CD9F804401032A469002CFF
S1132A601ABF54F8264043F810CC002443F8084C0D
S1132A70D9F8043001365C7DA642E1D3A91851F897
S1132A80202D42F080420A600268CA60D9F80430FE
S1132A90C9F808201A7D12B931E0197DB9B34FF095
S1132AA0000E10224FF0010C00260AE0002100BFA6
S1132AB043F8081CD9F804100136097D10328E42FF
S1132AC01BD24568AB1823F80ACC23F80CEC43F866
S1132AD010EC4168114443F8041CD9F804406178AF
S1132AE000294FF00001E3D1A1690029DED0647D03
S1132AF001EB840151F82610DAE7A91820390A6895
S1132B0042F080420A604068C860C9F80C00D9E904
S1132B100410B8F1010F06D18A6942F002028A61F9
S1132B204FF4800209E0026B42F480020263026BFC
S1132B3042F4802202634FF40012036B1A430263CF
S1132B4040F2EE528A6014220A65D9F80420D26851
S1132B50CA66016841F040010160D9F808100162B9
S1132B60D9F80C108161D9F804108978002918BFAC
S1132B700121C90181630021816440F20F71016563
S1132B8001218165BDE8000BF0BDD4D4F0B503AFDD
S1132B902DE9000B84B0044662680020D26A0390D9
S1132BA0029001909068D4E90468856910688946A8
S1132BB003A902AA01ABA84710B140F6A17078E0BE
S1132BC0039801380328F8D8DFE800F0021C0B143E
S1132BD03068012120F002003060306820F00400E9
S1132BE018E03068012120F002003060306840F0C5
S1132BF004000FE0306840F002003060306840F0BC
S1132C00040006E0306840F002003060306820F0D4
S1132C1004000021B9F1000F306008D0306840F49E
S1132C2000703060306840F04000306040E031BBFC
S1132C3060680079012822D14FF6FF70706500208A
S1132C407066C8F8700031684EF2A05C41F400214F
S1132C503160DDE90112C0F2000C01F0030162F3FE
S1132C60830100BF0CEB80031CF820505A780D4000
S1132C70954222D001300828F4D1002126E03068A2
S1132C8020F480303060306820F4003030606068B8
S1132C90C078316860F300013160306840F0400072
S1132CA03060306840F0200030600120C8F8100027
S1132CB0002004B0BDE8000BF0BDD978052801D090
S1132CC0032803D1306840F4803002E0306820F4F7
S1132CD08030306030680129D6D140F40030D5E727
S1132CE0F0B503AF2DE9000F89B0EFF303804FF087
S1132CF0704101EB006044F20C418015C1F6FE7195
S1132D0051F800A0DAF80420DAE90410D2F834B05B
S1132D100A690192856A6B0207D5019A920744BF3A
S1132D2001228AF81A20019A0A618562DAF81C00E5
S1132D30002846D04EF270524FF00008C0F2000254
S1132D400093CDF808B008E04EF27052C0F20002D1
S1132D5008F10108B8F1060F30D002EBC800406852
S1132D60DBF8081008402842F2D0DAF8200012F804
S1132D7038C048B186469EE8560A03AB83E8560A33
S1132D80DDF808B001E000BF03A880F804C0DAF859
S1132D90041009780160DAF824104161DAF81C1093
S1132DA08847DAF820C0BCF1000FCDD003A9AE46A5
S1132DB091E87D008CE87D007546C5E70098002801
S1132DC013D4EFF303804FF0704101EB006046F23F
S1132DD000318015C4F20001425822F4803242507E
S1132DE0405809B0BDE8000FF0BD4EF2044900217F
S1132DF04FF00108C0F2000906E000BF01215FEABC
S1132E00C8704FF00008DCD009EBC10040689BF8A3
S1132E100C201040019A1042F0D0DAF8200019F882
S1132E2031C048B1034693E876080DF10C0E8EE8E4
S1132E307608DDF808B000E003A880F804C0DAF8EA
S1132E40041009780160DAF824104161DAF81C10E2
S1132E508847DAF820C0BCF1000FCFD003A991E86D
S1132E607D008CE87D00C9E74EF22000C4F2010029
S1132E70817940F268420068C1F6FE7252F821106E
S1132E80C0F3026021FA00F044F21C41C1F6FE7165
S1132E9008607047F0B503AF2DE9000B4EF2804592
S1132EA0C4F201054CF200144AF20350C4F20104C6
S1132EB025F8820C0020208040F2684842F6005039
S1132EC041F6004C4EF22006C1F6FE78C0F23110F5
S1132ED041F200214FF4004241F60033C0F64E6C3B
S1132EE0C4F20106C0F27A01C0F2B70388E80F0009
S1132EF0C8E9042CB079316858F82000C1F30261A4
S1132F0044F21C49C840C1F6FE79C9F800002020EB
S1132F1005F86D0C092086F88200287810B96878C5
S1132F20800753D0287840B901202870C820012197
S1132F3000F0A2F828780128FCD1002068702870DD
S1132F40062086F885000020B07400BF307F00079B
S1132F50FCD54FF41C5030810020B072307F8006C5
S1132F60FCD50220207741F22120C2F2011030600A
S1132F700520B071B079316858F82000C1F30261BE
S1132F80C840C9F8000042F20400C4F20000F12174
S1132F9001700E21BFF35F8F0171F021BFF35F8FCA
S1132FA0017001204021307486F8320086F8330025
S1132FB031714FF4254125F8821CA080A088002897
S1132FC0FCD101202080BDE8000BF0BD4FF47A70E5
S1132FD000F002F8B4E7D4D47047D4D4B0B502AF4B
S1132FE044F22404C4F204040025C82001212571FC
S1132FF000F042F8257000BF20780028FCD120782A
S113300040F00200207000BF20788007FCD400202C
S113301004F8020C14F8020C0028FBD1002004F17F
S11330201C0100BF11F8102002F07F0201F81020EB
S113303011F91020002AFBD401300328F2D1012019
S113304000F0C4F84EF2BB41C4F201010022012099
S11330500A70BDE8B04000F08DB8D4D47047D4D421
S113306000220146C0F2026200200A607047D4D4F4
S113307000BE00BFFEE7D4D444F21C42C1F6FE7287
S1133080126841F20023C0F27A039A4201FB00F075
S11330900FD340F6FF01C0F23D0111444DF68362A7
S11330A0C4F21B32A1FB0212110DA0FB0101D9B124
S11330B01FE04CF6002348F63811C3F69A33C0F2E9
S11330C04101B3FBF2F2884206D24FF47A714843CD
S11330D0B0FBF2F0800807E09200B0FBF2F0884207
S11330E007D24FF47A714843002808BF704700F0B4
S11330F005B84FF0FF3000F001B8D4D401380028EF
S1133100FCD17047F0B503AF2DE9000B46F220184F
S1133110C4F20008B8F80000B8F8201044F2D4351E
S113312001EA00091FFA89F60024C1F6FE7502E0DF
S113313001340D2C0AD026FA04F0C007F8D055F853
S113314024100029F4D0E0B28847F1E7A8F81090E1
S1133150BDE8000BF0BDD4D44EF22050C0F2000004
S1133160008800281EBF46F20031C4F20001086046
S11331707047D4D40122EFF3108182F3108844F213
S11331801042C1F6FE7232F8103023B132F810301A
S1133190013B22F8103032F8102012B181F310886C
S11331A070474EF2FE3CC4F2010C4EF2E052BCF801
S11331B00030C0F2000232F8100043F4254222EA43
S11331C00000ACF8000081F31088704780B56F46AA
S11331D00122EFF3108182F3108844F21042C1F609
S11331E0FE7232F810308BB94EF2FE3C4EF2E053D0
S11331F0C4F2010CC0F20003BCF800E033F8103054
S113320043EA0E0343F42543ACF8003032F810309F
S1133210013322F8103081F3108880BD80B56F46E9
S113322000F006F8FDF750FFFEE7D4D400BE704767
S1133230F0B503AF2DE9000B4EF60850CEF20000B6
S11332404FF47001C0F8801040F20001C0F2000198
S1133250016000200024FDF769FDFFF71BFE01203B
S11332600125FDF763FD40F60450C4F200004FF45D
S11332702541048020F8041C40F2680140F244080F
S1133280C1F6FE71C0F20008416001F58061D8F812
S11332900060816046F22011C4F200014FF48052B4
S11332A00A8005808EB1D8F804003546041D03E079
S11332B0013D04F10C0408D060790028F8D154E9E8
S11332C00101091A08F019FEF2E7D8F80890B9F1DB
S11332D0000F13D0D8F80C004D4600F1080403E0A9
S11332E0013D04F1100409D060790028F8D154E9B3
S11332F002022168121A08F004FEF1E7FFF7B4FD98
S1133300FFF76CFE0220FDF711FD9EB1D8F8040012
S11333104FF48075041D03E0013E04F10C0409D050
S11333206079B5EB002FF7D154E90101091A08F0CF
S1133330E4FDF1E7B9F1000F16D0D8F80C004FF412
S1133340807600F1080404E0B9F1010904F11004E5
S11333500AD06079B6EB002FF6D154E90202216855
S1133360121A08F0CEFDEFE74DF22874C1F6FE7490
S1133370204607F00FFA204607F022FA4EF61220F4
S11333804EF61221C0F20000C0F20001091A8C109E
S1133390012C06DB051F00BF55F8040F8047013CD4
S11333A0FAD1FFF7D9FE0020BDE8000BBDE8F040DC
S11333B0FFF754BEB0B502AF00F10805092D01D2E4
S11333C000250AE010F0070107D009398D429ABFA1
S11333D020F0070000F11005002501F003F944F284
S11333E02042C1F6FE72116829B144F22440C1F6AC
S11333F0FE70006826E044F23043C1F6FE73D81D27
S1133400590703F5004118BF20F0070344F2284090
S1133410C1F6FE700024C0E9003421F00700A0F1D9
S11334200801116040E90244C81A11684CF23042A4
S1133430C1F6FE72C3E90010106044F22442C1F6E2
S1133440FE721060012D4FF0000471DB85426FD8CD
S113345044F22840C1F6FE70026844F2304CC1F6D2
S1133460FE7C6245C0F0898047F6FF70604482426A
S113347000F283805068A84253D21068002850D0CC
S113348047F6FF730CEB0304604567D3134602460B
S1133490A04263D85068A84202D210680028F3D131
S11334A08A4244D0186800F10804644574D347F68E
S11334B0FF70604484426FD8106818605168A94254
S11334C07AD3481B11280DD302EB050C5FEA4C712B
S11334D040F08280CCF80400556018685051C3F85D
S11334E000C0516844F22445C1F6FE754CF2304CDC
S11334F02B68C1F6FE7CDCF800005B1A834241F0C5
S113350000404FF000012B6038BFCCF80030C2E916
S113351000104CF23440C1F6FE70016801310160C4
S113352006E044F22843C1F6FE738A42BAD100246D
S113353001F0B8F8600704BF2046B0BD4DF230403A
S11335404CF693324CF6CA63C0F20000C0F200029B
S1133550C0F2000340F25711FFF78AFD4DF23040EC
S11335604CF693324DF66913C0F20000C0F200022B
S1133570C0F20003FB21FFF77BFD4DF230404CF617
S113358093324DF66913C0F20000C0F20002C0F29B
S11335900003F521FFF76CFD4DF230404CF69332F9
S11335A04DF27113C0F20000C0F20002C0F2000339
S11335B040F20511FFF75CFD4DF230404CF69332BA
S11335C04CF2C873C0F20000C0F20002C0F2000363
S11335D040F20D11FFF74CFD4DF230404CF69332A2
S11335E04DF26D43C0F20000C0F20002C0F20003CD
S11335F04FF48B71FFF73CFDF0B503AF4DF804BDFC
S113360000285DD044F23045A0F10804C1F6FE75EF
S1133610AC4258D347F6FF7129448C4253D850F832
S1133620041C00295FD52268002A6CD121F00041D6
S113363040F8041C064600F0D5FF44F22440C1F6CD
S1133640FE7056F8042C016844F228431144C1F674
S1133650FE730160194600BF08460968A142FBD306
S1133660984206D0A8425ED347F6FF732B44984293
S113367059D84368C618A64202D11A440446426087
S1133680A3188B420BD144F22043C1F6FE731B688E
S1133690994204D049681144616001680968A042F4
S11336A0216018BF04604CF23840C1F6FE70016816
S11336B0013101605DF804BBBDE8F04000F0F2BFE9
S11336C05DF804BBF0BD4DF230404DF634024EF2CD
S11336D0E513C0F20000C0F20002C0F200034FF490
S11336E0B571FFF7C5FC4DF230404DF634024DF292
S11336F00863C0F20000C0F20002C0F2000340F20E
S11337006B11FFF7B5FC4DF230404DF634024DF627
S11337105373C0F20000C0F20002C0F200034FF481
S1133720B671FFF7A5FC4DF230404CF6A0324CF2D6
S11337303F33C0F20000C0F20002C0F200034FF4B5
S1133740FD71FFF795FCD4D4B0B502AF1C20FFF790
S113375031FE002808BFB0BD0025011D05600446E8
S1133760084600F0A5F820462576B0BDF0B503AFB5
S11337702DE90007E0B38846B1F1807F48D2814645
S113378000F10C0A00F02EFFD9F80000D9F810500F
S113379040EA08005545C9F800001DD0002409E09E
S11337A036B141F00071DB0148BF144301F06EFBF8
S11337B055450DD02846D5E90035D9F8001023F039
S11337C07F425E0101EA0206EAD59642E9D0EFE7BC
S11337D0D9F80000E14301E04FF0FF310840C9F897
S11337E0000000F05FFFD9F80000BDE80007F0BD5D
S11337F04DF286304CF6B2224DF27B63C0F20000EB
S1133800C0F20002C0F2000340F23221FFF730FCA4
S11338104DF286304CF6B2224CF60373C0F200002F
S1133820C0F20002C0F2000340F23321FFF720FC93
S1133830B0B502AF58B3044600F0D4FE606858B186
S113384004F10C052069A84211D04FF0007101F079
S11338501DFB60680028F5D100F024FF207E0028BD
S113386018BFB0BD2046BDE8B040FFF7C5BE4DF25D
S113387086304DF2B8324CF63773C0F20000C0F215
S11338800002C0F2000340F29A21FFF7F1FB4DF26F
S113389086304DF2B8324DF68133C0F20000C0F2EA
S11338A00002C0F2000340F28E21FFF7E1FBD4D402
S11338B04FF0FF31024642F8081F0021C0E90322FD
S11338C0C0E900127047D4D4002101617047D4D4F8
S11338D042684A6093688B6059609160086101682E
S11338E0013101607047D4D480B56F46D1F800C06F
S11338F01CF1010208D000F1080200BF964652688C
S113390013686345FAD903E0D0F810E0DEF8042028
S11339104A609160C1F808E0CEF8041008610168BB
S11339200131016080BDD4D4D0E9012301699360E1
S113393042685A604A68824201D182684A60002221
S113394002610868013808607047D4D4F0B503AF49
S11339504DF804BD00284DD00446C06BD0B30E46CC
S1133960216CA0FB0101A9BBFDF7F6FC2068D4E99A
S11339700F12002502FB0103013901FB0201A563BB
S1133980C4E90103FF20E16084F8440084F84500A1
S113399004F110005EB1FFF78BFF04F12400FFF780
S11339A087FFFDF707FD01205DF804BBF0BD01684A
S11339B00029F6D001F0E8F90028F2D04EF60450C0
S11339C0CEF200004FF080510160BFF34F8FBFF380
S11339D06F8FE6E74DF22F704DF6C9624DF69343B3
S11339E0C0F20000C0F20002C0F200034FF4B6714E
S11339F0FFF73EFB4DF22F704DF6C9624DF6FC33D6
S1133A00C0F20000C0F20002C0F2000340F237111D
S1133A10FFF72EFBD0B502AF82B05BB3D0B11C462A
S1133A2001B9BAB901B1AAB148230193019B482B4A
S1133A3030D1019B012384F84630002908BF224677
S1133A40C4E90F01204601212260FFF77FFF2046D1
S1133A5002B0D0BD4DF22F704DF2CA324DF6DB13D9
S1133A60C0F20000C0F20002C0F200034FF4D871AB
S1133A70FFF7FEFA4DF22F704DF2CA324CF6DC43DA
S1133A80C0F20000C0F20002C0F200034FF4C271A1
S1133A90FFF7EEFA4DF22F704DF2CA324DF28E233B
S1133AA0C0F20000C0F20002C0F200034FF4CB7178
S1133AB0FFF7DEFAB0B502AF82B0C8B10D4681425D
S1133AC016D8144622B348210191019948292FD1CF
S1133AD00199012184F846100021C4E90F01204610
S1133AE001212460FFF732FF2046A56302B0B0BD78
S1133AF04DF22F704DF287624CF6EA43C0F200009B
S1133B00C0F20002C0F200034FF45E71FFF7B0FA96
S1133B104DF22F704DF2CA324CF6DC43C0F2000075
S1133B20C0F20002C0F200034FF4C271FFF7A0FA22
S1133B304DF22F704DF2CA324DF28E23C0F20000C6
S1133B40C0F20002C0F200034FF4CB71FFF790FA09
S1133B50F0B503AF2DE9000F85B00028049200F002
S1133B60C8801E461546044619B9206C002840F04A
S1133B70F080022E03D1E06B012840F0DA8001913D
S1133B8001F0A6FA10B9002D40F0C380FDF7E4FB64
S1133B90A06B022E00965BD0E16B884258D304F1EF
S1133BA01006012002AD4FF0000B0DF1100A0CE0DD
S1133BB0204600F0DFF800F075FDFDF7CDFBA06BAB
S1133BC0E16B88424FF0000042D3049900295ED093
S1133BD0C00702D0284601F009FAFDF7EBFB00F01C
S1133BE001FDFDF7B9FB94F84400FF2808BF84F8F1
S1133BF044B094F84500FF2808BF84F845B0FDF7A9
S1133C00D9FB2846514601F0FFF9002842D1FDF7BF
S1133C10A3FBD4F83880D4F83C90FDF7CBFBC8451F
S1133C20C6D10499304601F04FF8204600F0A2F8BE
S1133C3000F038FD0028C0D14EF60450CEF200004A
S1133C404FF080510160BFF34F8FBFF36F8FB4E724
S1133C50A56B226C92B3009E1EB3E068019908F034
S1133C6050F9E168206C2268091A9142E16003D29C
S1133C70A16840420844E060B01EB0FA80F04009F8
S1133C802946002D18BF012108402D1A16E0FDF722
S1133C9091FB04E0204600F06DF800F003FD0020E5
S1133CA023E06068019908F02CF9D4E90101226C41
S1133CB010448842606001D32068606054F8240F87
S1133CC0691C616170B1204601F05EF850B14EF696
S1133CD00450CEF200004FF080510160BFF34F8FCB
S1133CE0BFF36F8FFDF766FB012005B0BDE8000F41
S1133CF0F0BD4DF22F704CF6C5224DF6FC33C0F2E8
S1133D000000C0F20002C0F2000340F2B631FFF737
S1133D10AFF94DF22F704CF6C5224CF6D723C0F202
S1133D200000C0F20002C0F2000340F2BB31FFF712
S1133D309FF94DF22F704CF6C5224CF6F243C0F2B7
S1133D400000C0F20002C0F200034FF46E71FFF7EE
S1133D508FF94DF22F704CF6C5224EF27423C0F247
S1133D600000C0F20002C0F2000340F2B731FFF7D6
S1133D707FF9D4D4F0B503AF4DF8048D0446FDF7B4
S1133D80EBFA94F94560012E0FDB04F1240500BF22
S1133D90286850B1284600F0F7FF002818BF01F04A
S1133DA089F970B2013E0128F2DC4FF0FF0884F873
S1133DB04580FDF7FFFAFDF7CFFA94F94460012E30
S1133DC00FDB04F1100500BF286850B1284600F04D
S1133DD0DBFF002818BF01F06DF970B2013E012825
S1133DE0F2DC84F844805DF8048BBDE8F040FDF714
S1133DF0E1BAD4D4F0B503AF2DE9000F85B00028A3
S1133E00049200F0A48015468946044619B9206C32
S1133E10002840F0BC8001F05BF910B9002D40F09F
S1133E20A680FDF799FAD4F838B0BBF1000F29D079
S1133E30226C52B1D4E902011144E160814224BFF1
S1133E402168E160484608F05CF854F8100FABF1C3
S1133E500101A16270B1204600F096FF50B14EF608
S1133E600450CEF200004FF080510160BFF34F8F39
S1133E70BFF36F8F0124FDF79DFA204605B0BDE81E
S1133E80000FF0BD04F124000190012002AE4FF0B8
S1133E90000A0DF110082BE0FDF78CFA00F0A2FBEC
S1133EA0FDF75AFA94F84400FF2808BF84F844A0A8
S1133EB094F84500FF2808BF84F845A0FDF77AFA76
S1133EC03046414601F0A0F8D0B12046FFF752FF3A
S1133ED000F0E8FBFDF740FAA56BFDF76BFAA5B31C
S1133EE0FDF73AFAD4F838B00020BBF1000F9FD1A7
S1133EF0049941B3C007CFD0304601F077F8CBE73F
S1133F00FDF72AFAA56BFDF755FA2DB12046FFF708
S1133F1031FF00F0C7FBE3E70499019800F0D4FEF9
S1133F202046FFF727FF00F0BDFB0028D8D14EF64E
S1133F300450CEF200004FF080510160BFF34F8F68
S1133F40BFF36F8FCCE7002495E7002495E74DF28B
S1133F502F704DF2AB624CF65C43C0F20000C0F22D
S1133F600002C0F2000340F2E951FFF781F84DF27C
S1133F702F704DF2AB624CF6D723C0F20000C0F2B2
S1133F800002C0F2000340F2F251FFF771F84DF263
S1133F902F704DF2AB624DF6E613C0F20000C0F292
S1133FA00002C0F2000340F2ED51FFF761F8D4D4EF
S1133FB0F0B503AF2DE9000F83B00028029100F0A3
S1133FC091800446006C002840F09C800D4601F06E
S1133FD07FF810B9002D40F0A580FDF7BDF9A16B65
S1133FE0D9B154F8100F0139A16270B1204600F024
S1133FF0CBFE50B14EF60450CEF200004FF080518B
S11340000160BFF34F8FBFF36F8F0124FDF7D2F927
S1134010204603B0BDE8000FF0BD04F124080120E0
S11340206E464FF000090DF1080B29E0FDF7C2F9C7
S113403000F0D8FAFDF790F994F84400FF2808BF7F
S113404084F8449094F84500FF2808BF84F845900C
S1134050FDF7B0F93046594600F0D6FFC0B120460E
S1134060FFF788FE00F01EFBFDF776F9A56BFDF760
S1134070A1F9ADB3FDF770F9A16B00200029B0D10F
S1134080029959B3C007D1D0304600F0AFFFCDE755
S1134090FDF762F9D4F838A0FDF78CF9BAF1000FF6
S11340A005D02046FFF766FE00F0FCFAE2E702992D
S11340B0404600F009FE2046FFF75CFE00F0F2FAED
S11340C00028D7D14EF60450CEF200004FF08051B4
S11340D00160BFF34F8FBFF36F8FCBE7002495E7E9
S11340E0002495E74DF22F704DF2A9224CF65C4363
S11340F0C0F20000C0F20002C0F2000340F282618C
S1134100FEF7B6FF4DF22F704DF2A9224DF67973EA
S1134110C0F20000C0F20002C0F2000340F2866167
S1134120FEF7A6FF4DF22F704DF2A9224CF6D723CD
S1134130C0F20000C0F20002C0F2000340F28B6142
S1134140FEF796FFD0B502AF38B10446FDF704F987
S1134150A46BFDF72FF92046D0BD4DF22F704DF220
S11341605A724DF68753C0F20000C0F20002C0F24A
S1134170000340F69B01FEF77BFFD4D4C0B14CF2A0
S11341803C4C0021C1F6FE7C0CEBC1035A68824210
S113419003D001310A29F7D103E000224CF8312081
S11341A05A6090F84610002918BF7047FFF724BAE8
S11341B080B56F464DF22F704DF63F224DF6FC331D
S11341C0C0F20000C0F20002C0F2000340F6D401C5
S11341D0FEF74EFFB0B502AF28B3002908BFB0BD4B
S11341E04CF23C4E4FF0000CC1F6FE7E0022002340
S11341F003E000BF0832502A10D00EEB02046568B9
S1134200854207D0002BF5D12368002B18BF6446E4
S11342102346EFE72346C3E90010B0BD002B18BFC7
S1134220C3E90010B0BD4DF22F704CF2B7324DF619
S11342308753C0F20000C0F20002C0F2000340F64F
S1134240C931FEF715FFD4D4F0B503AF4DF804BD62
S113425015460E460446FDF77FF894F84400FF28FF
S113426004BF002084F8440094F84500FF2804BFEC
S1134270002084F84500FDF79DF8A06B28B904F1EF
S1134280240031462A4600F041FD20465DF804BB77
S1134290BDE8F040FFF76EBDF0B503AF2DE9000FA8
S11342A081B0FC68002C4CD03D69002D59D081466A
S11342B0602000900098602863D100980E46D7F8DB
S11342C008B0284660219846924607F016FE022060
S11342D02C6385F85D007EB105F13300711E0F2259
S11342E011F8013F00F8013F1BB1002AA2F10102BD
S11342F0F6D1002085F84300BBF1050F51D204EB41
S11343008A00043820F00704281DC5F82CB0FFF7F4
S1134310DBFA05F11800FFF7D7FACBF10500296B9A
S1134320A86120464A4643462D616D62FCF7BAFFF8
S11343302860284600F046F8284601B0BDE8000F82
S1134340F0BD4DF636104DF63E024CF2FB73C0F252
S11343500000C0F20002C0F2000340F2F141FEF797
S113436087FE4DF636104DF63E024CF6FB73C0F256
S11343700000C0F20002C0F2000340F2F241FEF776
S113438077FE4DF636104DF63E024EF2E223C0F2B1
S11343900000C0F20002C0F2000340F2FA41FEF74E
S11343A067FE4DF636104DF216024CF6DA53C0F2A3
S11343B00000C0F20002C0F2000340F26471FEF794
S11343C057FED4D4F0B503AF2DE9000F81B00446F5
S11343D0FCF7C2FF4CF2B040C1F6FE7001684CF22B
S11343E08C4B01310160C1F6FE7BDBF800104CF20E
S11343F0944A4CF2BC46C1F6FE7AC1F6FE7661B12F
S1134400DAF80000002841D1DBF80000E16AC06A54
S1134410884298BFCBF8004038E0CBF800400068F1
S1134420012833D1002500BF7019FFF741FA143574
S1134430642DF9D14CF26858C1F6FE784046FFF776
S113444037FA4CF27C59C1F6FE794846FFF730FA48
S11344504CF23C50C1F6FE70FFF72AFA4CF2984039
S1134460C1F6FE70FFF724FA4CF22450C1F6FE7038
S1134470FFF71EFA4CF25C50C1F6FE70C0F80080E3
S11344804CF26050C1F6FE70C0F800904CF29040BF
S1134490C1F6FE700168013101604CF22051C1F691
S11344A0FE71E06A0A68904288BF086000EB8000F1
S11344B006EB80004068221DA0608168E1604A60CC
S11344C08260E06A00EB800006EB8001616156F8CF
S11344D02010013146F82010FCF76CFFDAF80000D8
S11344E080B1DBF80000E16AC06A88420AD24EF665
S11344F00450CEF200004FF080510160BFF34F8FA3
S1134500BFF36F8F01B0BDE8000FF0BDF0B503AF8E
S11345102DE9000F81B081469000984692460C46E2
S1134520FEF748FF002846D005466020FEF742FF0C
S113453000283DD0D7F808B06021064607F0DDFC1E
S113454035637CB106F13300611E0F2211F8013F7F
S113455000F8013F1BB1002AA2F10102F6D10020AC
S113456086F84300BBF1050F2BD205EB8A00043813
S113457020F00704FD68301DC6F82CB0FFF7A4F93D
S113458006F11800FFF7A0F9CBF10500316BB0611B
S113459020464A46434636617662FCF783FE306025
S11345A03046002D18BF2E60FFF70CFF012004E0F9
S11345B02846FFF721F84FF0FF3001B0BDE8000FA7
S11345C0F0BD4DF636104DF216024CF6DA53C0F239
S11345D00000C0F20002C0F2000340F26471FEF772
S11345E047FDD4D44CF2B440C1F6FE7001680131E9
S11345F001607047F0B503AF2DE900070E464CF299
S1134600B841C1F6FE71D1F800A04CF25C51C1F67C
S1134610FE71D1F800804CF260514CF28C45C1F629
S1134620FE71C1F6FE75D1F8009029680446081D94
S1134630FFF77AF9601C18D1BEB14CF22450C1F6D0
S1134640FE70D0E900122B6801319A6093682E68DD
S1134650F3602E6804365E602B68043393602A6826
S113466001605061BDE80007F0BD286814EB0A043E
S11346704460286800F1040106D34846BDE80007F9
S1134680BDE8F040FFF730B94046FFF72DF94CF292
S11346905050C1F6FE7001688C4238BF0460BDE81A
S11346A00007F0BDF0B503AF2DE90007FCF754FE99
S11346B04CF2B440C1F6FE700168002900F0B180EC
S11346C0016801390160006830B10024FCF772FE12
S11346D02046BDE80007F0BD4CF2B040C1F6FE70C4
S11346E000680028F1D04CF23C50C1F6FE7001681D
S11346F04CF2385A4CF28C480029C1F6FE7AC1F6C5
S1134700FE7867D04CF2205E4CF2BC430021C1F627
S1134710FE7EC1F6FE734FF0010C29E061612A6848
S1134720013A2A60E56ADEF80020954205EB85022D
S113473088BFCEF8005003EB82025268A2609568ED
S1134740E5606E609660E26A02EB820203EB82052A
S1134750656153F82250013543F82250E26AD8F8D3
S11347600040E46AA24288BFCAF800C00268FAB1F5
S1134770C668F468D4E90752A66AAA60E569556078
S1134780726804F11805AA4201D1226A7260A1621A
S11347903268013A3260D4E9022665699660A268FB
S11347A072606A68261DB242B8D1E2686A60B5E7F1
S11347B04CF25C50C1F6FE700168096819B10068DA
S11347C0C068006801E04FF0FF304CF25051C1F670
S11347D0FE7108604CF25859C1F6FE79D9F80060B0
S11347E05EB1012400F08CF9002818BFCAF800401B
S11347F0013EF7D10020C9F80000DAF800000028D3
S11348003FF463AFD8F800004EF60450CEF2000037
S11348104FF080510160BFF34F8F0124BFF36F8FBE
S113482054E74DF636104CF69D724DF6A253C0F285
S11348300000C0F20002C0F2000340F68B71FEF7E4
S113484017FCD4D4F0B503AF2DE9000B00283FD0FA
S113485004464CF2B440C1F6FE70016801310160B7
S11348600068012842D14CF2B840C1F6FE700568D8
S11348704CF25C50C1F6FE70D0F800804CF26050EF
S11348804CF28C46C1F6FE70C1F6FE76D0F800906C
S113489030680430FFF748F83068641944603068C1
S11348A000F1040103D34846FFF71EF80AE040462E
S11348B0FFF71AF84CF25050C1F6FE7001688C42B2
S11348C038BF0460FFF7EEFE10B1BDE8000BF0BD89
S11348D04EF60450CEF200004FF080510160BFF359
S11348E04F8FBFF36F8FBDE8000BF0BD4DF6361050
S11348F04DF604424DF2A143C0F20000C0F20002A2
S1134900C0F2000340F68E11FEF7B2FB80B56F468D
S11349104CF2B440C1F6FE70006830B14CF238502D
S1134920C1F6FE700121016080BD4CF23850C1F621
S1134930FE7000214CF2205C0160C1F6FE7CDCF8C4
S113494000104CF2BC4201EB8100C1F6FE7252F839
S113495020304BB902EB8000A0F11403E9B153F805
S1134960140901390028F9D001EB810002EB800E13
S1134970734653F8042F5268181D82421A6002D1FC
S1134980DEF80C201A60D0684CF28C42C1F6FE723C
S11349901060CCF80010106880BD4DF636104CF253
S11349A030724EF25523C0F20000C0F20002C0F291
S11349B0000341F2FA31FEF75BFBD4D4B0B502AF89
S11349C08AB044F24940C4F24C500024069005A831
S11349D004A903AA8DF81C40CDE90444FCF79AFB12
S11349E0DDE90320059DCDE9004045F21530C0F214
S11349F0000006A900230295FFF74EFC4CF2545028
S1134A00C1F6FE70056065B300F09EFC012811D06C
S1134A10013026D14DF636104DF68E524DF27E53AE
S1134A20C0F20000C0F20002C0F2000340F6A96127
S1134A30FEF71EFB4CF25051C1F6FE714FF0FF32EF
S1134A40012080F310880A604CF29441C1F6FE7193
S1134A5008604CF2B840C1F6FE7000210160FCF71A
S1134A6037FC4EF2EC50C0F2000000680AB0B0BD52
S1134A70F0B503AF4DF8048D4CF2AC45C1F6FE75AC
S1134A802868C8B34CF298484CF2B046C1F6FE7898
S1134A90C1F6FE7608E000BF206BFEF7ADFD2046B0
S1134AA0FEF7AAFD286838B3FCF756FCD8F80C00CA
S1134AB0C468201DFEF738FF30680138306028686C
S1134AC001382860FCF776FC94F85D000228E9D0F0
S1134AD00128E4D00028DFD04DF636104CF6706281
S1134AE04DF65203C0F20000C0F20002C0F200030F
S1134AF041F62E11FEF7BCFA5DF8048BF0BDD4D458
S1134B00F0B503AF2DE9000F81B04CF2B440C1F60B
S1134B10FE70006840B14CF25850C1F6FE70016856
S1134B20013101600020B4E04CF2B840C1F6FE70DF
S1134B3001684CF2505C11F1010BC1F6FE7CC0F827
S1134B4000B022D34CF25C50C1F6FE7001680968D3
S1134B50002940F0A2804CF26053C1F6FE73016854
S1134B601E68066019604CF26451C1F6FE710B6850
S1134B7001330B600168096819B10068C0680068F6
S1134B8001E04FF0FF30CCF80000DCF80000834572
S1134B9001D2002075E04CF25C5AC1F6FE7ADAF8D4
S1134BA000004FF000090068002862D04CF2205E3B
S1134BB04CF2BC444CF28C48C1F6FE7EC1F6FE7445
S1134BC0C1F6FE7800202BE0C6F828900A68013A66
S1134BD00A60F16ADEF80020914288BFCEF8001026
S1134BE001EB810104EB81014968B1608A68F260DC
S1134BF055608D60F16A01EB810104EB8102726101
S1134C0054F82120013244F82120F16AD8F8002018
S1134C10D26ADAF80030914288BF0120196861B382
S1134C20DAF80010C968CE68354655F8041F8B457C
S1134C3025D3D6E9023271699A60B36853604A6831
S1134C40AA4201D1F2684A60C6F814900A68013A8F
S1134C500A60B16A0029BCD0D6E907239360F269DF
S1134C605A604A6806F118039A42ADD1326A4A6022
S1134C70AAE74FF0FF31002001E04FF0FF31CCF8FC
S1134C8000104CF23851C1F6FE710968002918BFB2
S1134C90012001B0BDE8000FF0BD4DF636104DF215
S1134CA0B9624CF2BA63C0F20000C0F20002C0F272
S1134CB0000341F25F21FEF7DBF9D4D44CF2B84093
S1134CC0C1F6FE7000687047D0B502AF70B10C46F3
S1134CD04CF28C41C1F6FE7109681831FEF704FEEE
S1134CE020460121BDE8D040FFF784BC4DF63610C4
S1134CF04DF6B7424DF2BC43C0F20000C0F20002D0
S1134D00C0F200034FF4A451FEF7B2F9D0B502AFDC
S1134D1050B34CF28C4CC1F6FE7C0346D0F804E050
S1134D20DCF80000002AC0F81CE0DEF80800DCF81B
S1134D3000402062DCF8004004F118044460DCF810
S1134D40000000F11800CEF80800DCF800008362CF
S1134D50186818BF4FF0FF31441C084611461C6008
S1134D60BDE8D040FFF746BC4DF636104CF6AC72A9
S1134D704DF2BC43C0F20000C0F20002C0F20003D6
S1134D8041F2BE41FEF774F9C068C06800286AD0D9
S1134D90D0E90713826A8B60C16900F1180C59606D
S1134DA05368634501D1036A536000238362136827
S1134DB0013B13604CF2B442C1F6FE7212686AB150
S1134DC04CF23C52C1F6FE725368C36199680162A9
S1134DD0C1F804C0C3F808C082622FE0D0E902130E
S1134DE042698B60816859605368011D8B4201D10F
S1134DF0C36853600023436113684CF2205C013B99
S1134E001360C1F6FE7CC26ADCF800309A4288BFA7
S1134E10CCF800204CF2BC4C02EB8202C1F6FE7CC2
S1134E200CEB8202526882609368C360596091609F
S1134E30C16A01EB81010CEB81024261116801310D
S1134E4011604CF28C41C1F6FE71C06A0968C96AEE
S1134E50884291BF00204CF23851C1F6FE71012006
S1134E6088BF0860704780B56F464DF636104CF623
S1134E70CC724CF66843C0F20000C0F20002C0F2EB
S1134E80000341F2F541FEF7F3F8D4D480B56F4640
S1134E904CF2B442C1F6FE721268002A5FD0C268B6
S1134EA041F00041002A016069D0D0E901CE0369D4
S1134EB0CCF808E04168CEF804105968814201D169
S1134EC0816859604FF0000CC0F810C018680138B0
S1134ED01860D2E90201536981609068486059689A
S1134EE0101D814201D1D1685960C2F814C01968FB
S1134EF04CF2205C01391960C1F6FE7CD16ADCF801
S1134F000030994288BFCCF800104CF2BC4C01EB45
S1134F108101C1F6FE7C0CEB8101496891608B68CC
S1134F20D36058608860D06A00EB80000CEB80018D
S1134F3051615CF8201001314CF820104CF28C4186
S1134F40C1F6FE71D06A0968C96A884298BF80BDFB
S1134F504CF23850C1F6FE700121016080BD4DF65F
S1134F6036104CF63F524DF69273C0F20000C0F278
S1134F700002C0F2000341F24351FEF779F84DF606
S1134F8036104CF63F524CF66843C0F20000C0F2B3
S1134F900002C0F2000341F24E51FEF769F8D4D486
S1134FA0D0B502AF90B10446FCF7D6F94CF2645088
S1134FB0C1F6FE70006820604CF2B840C1F6FE7085
S1134FC000686060BDE8D040FCF7F4B94DF63610D7
S1134FD04DF2BD224CF66153C0F20000C0F2000253
S1134FE0C0F2000341F28651FEF742F84CF26451DC
S1134FF0C1F6FE71096801604CF2B841C1F6FE7158
S1135000096841607047D4D4F0B503AF4DF804BDCE
S113501078B30D46E9B30446FCF79EF94CF2B84E5A
S1135020C1F6FE7EDEF8003029684A1C16D04CF228
S1135030645CC1F6FE7CD4E90002DCF800608642C0
S113504001D093420CD29A1A914209D9881A286045
S1135050DCF800002060DEF800006060002402E05C
S1135060002001242860FCF7A5F920465DF804BB64
S1135070F0BD4DF636104DF64C224CF66153C0F29D
S11350800000C0F20002C0F2000341F2A551FDF796
S1135090EFFF4DF636104DF64C224DF2E513C0F2FB
S11350A00000C0F20002C0F2000341F2A651FDF775
S11350B0DFFFD4D44CF23850C1F6FE7001210160F8
S11350C07047D4D44CF28C40C1F6FE70006870472F
S11350D04CF29440C1F6FE700068002804BF012021
S11350E070474CF2B440C1F6FE700068B0FA80F02C
S11350F0400940007047D4D4F0B503AF4DF804BD67
S1135100002846D14CF2B440C1F6FE700C4601684A
S1135110154601310160FCF71FF94CF28C46C1F6CB
S1135120FE763068806DC0B1FCF744F9FFF7BAFA37
S1135130FCF712F93068856D2DB131680020002C20
S113514008BF681E88653068002180F85C10FCF791
S113515031F928465DF804BBF0BD3068012180F8C0
S11351605C10FCF727F9002DE0D028460121FFF759
S113517041FAFFF797FA0028DAD14EF60450CEF23E
S113518000004FF080510160BFF34F8FBFF36F8F6A
S1135190CEE74DF636104EF2CA224CF66B53C0F2EF
S11351A00000C0F20002C0F2000341F6C751FDF74F
S11351B05FFFD4D4F0B503AF4DF804BD002879D017
S11351C0002940F0878016460546FCF755F9EFF3B1
S11351D01180102181F31188022295F85C1085F862
S11351E05C20AA6D012902F10102AA655DD1A96AB8
S11351F0002940F07F804CF2B441C1F6FE71096889
S113520069B14CF23C51C1F6FE714A6805F11804CB
S1135210EA6193682B625C609460A9622FE0D5E92F
S113522002136A698B60A96859605368291D8B420F
S113523001D1EB68536000236B6113684CF2205C6E
S1135240013B1360C1F6FE7CEA6ADCF800309A4246
S113525088BFCCF800204CF2BC4C02EB8202C1F6B1
S1135260FE7C0CEB82025268AA609368EB60596082
S11352709160E96A01EB81010CEB810169610A68C3
S113528001320A604CF28C42C1F6FE72E96A12687D
S1135290D26A914209D9002E1CBF012131604CF21F
S11352A03851C1F6FE7101220A6080F311885DF85D
S11352B004BBF0BD4DF636104DF2C8424DF2CC633E
S11352C0C0F20000C0F20002C0F200034FF4FE512D
S11352D0FDF7CEFE4DF636104DF2C8424CF6E5739E
S11352E0C0F20000C0F20002C0F2000341F6C17136
S11352F0FDF7BEFE4DF636104DF2C8424DF6BD73B5
S1135300C0F20000C0F20002C0F2000341F6EA71EC
S1135310FDF7AEFE80B56F464CF2BC444EF6045524
S1135320C1F6FE74CEF200054FF08056FFF7A0FBE5
S11353302068022822BF2E60BFF34F8FBFF36F8F08
S1135340FCF75CF8F2E7D4D480B56F4686B000F081
S11353503DF84CF29050C1F6FE70006828B300206E
S1135360CDE9040005A804A903AAFBF7E1FEDDE9E1
S113537003200321DDF814C0CDE9001045F25140AB
S11353804DF6DC61C0F20000C0F200010023CDF84C
S113539008C0FEF781FF4CF29451C1F6FE7100285B
S11353A008601EBF012006B080BD4CF618004DF603
S11353B0FB724DF2F313C0F20000C0F20002C0F21F
S11353C000034FF4A371FDF753FED4D4F0B503AF3B
S11353D04DF804BD82B0FBF7BFFF4CF29056C1F606
S11353E0FE76306868BB4CF2A454C1F6FE742046C5
S11353F0FEF75EFA4CF2B855C1F6FE752846FEF784
S113540057FA4CF29850C1F6FE7004604CF29C506E
S1135410C1F6FE704CF214624CF2CC5305600025C8
S1135420C1F6FE72C1F6FE730A200C210095FEF748
S1135430F1FA306028B14CF67111C0F20001FEF7A8
S1135440C9FE02B05DF804BBBDE8F040FBF7B2BF93
S113545080B56F4686B04CF2985A4CF2905BC1F618
S1135460FE7A0DF10C09C1F6FE7B00BFDAF80000EC
S113547005681DB1C068046801E000BF0024FFF79F
S1135480B1F8484600F016F9039919B1FFF70AF983
S11354905DE000BF8046A5B1444512D8FFF702F98C
S11354A0DAF80000C068C5682E1D3046FEF73CFAE5
S11354B095F82400410707D400F0FA0085F8240089
S11354C042E0BDB100221EE0019607E0A8EB040112
S11354D081422FD3296A284688473446A8692D611A
S11354E0061946456E60F1D9A04528D2A642504619
S11354F0F0D225E04CF29C50C1F6FE7000680068C2
S1135500B0FA80F04209DBF80000A4EB0801FEF7D2
S11355109BFEFFF7C7F80DF10808D0B94EF604500A
S1135520CEF200004FF080510160BFF34F8FBFF304
S11355306F8F0EE04CF29C50C1F6FE7000E05046B6
S113554000680199FEF7D0F9296A284688470DF1C9
S113555008080021DBF80000CDE90411039106E0FE
S1135560524610682146FEF7BFF9DBF800004946B1
S11355700022FEF73FFC00283FF478AF0398002890
S1135580F3D4059E706910B1301DFEF7CDF9404685
S113559000F090F8039901390829E6D80546DFE8B8
S11355A001F00505402860050540280096F8241000
S11355B0049AB06941F0010386F824308318344614
S11355C044F8043FAB42366105D99542C8D29342B0
S11355D0524607D2C5E7AA1A82424CF29C52C1F63F
S11355E0FE72BED34A0723D401F0FA0086F82400E1
S11355F04BE096F8240040F00101049886F824104A
S11356000028B06145D02844314641F8040FA8422F
S11356104CF29C50C1F6FE70366188BF504600685B
S1135620A1E796F8240000F0FE0086F824009CE729
S11356300499014408E000BF691A814219D3316A10
S113564030468847B069414601EB0008A845C6F8D2
S113565004803661F0D98D4210D288455046EED28E
S11356600DE096F824008107DDD43046FDF7C4FF31
S11356707BE74CF29C50C1F6FE7000E05046006897
S11356802146FEF731F90DF10808316A30468847A2
S11356906BE74CF618004DF679624EF2FB23C0F22C
S11356A00000C0F20002C0F200034FF48261FDF773
S11356B0DFFCD4D4F0B503AF2DE9000F81B004466C
S11356C0FFF7FCFA4CF2A052C1F6FE721168824652
S11356D0884248D24CF29855C1F6FE7528684CF2BF
S11356E09C5B0168C1F6FE7B0094B1B9DBF8001045
S11356F0009C4CF2A052CBF800000120C1F6FE72CF
S1135700296031E000F0FA0086F82400316A30465E
S11357108847286801680029E8D0C068C668D0F8BE
S11357200080341D2046FEF7FFF896F82400410758
S1135730E8D5B06900EB0809C6F8049010EB08003E
S113574036610AD2316A30468847B06919EB0001E4
S11357508144C6F804903661F4D3DBF80000214696
S1135760FEF7C2F8D2E7002020605046C2F800A03D
S113577001B0BDE8000FF0BDF0B503AF2DE900079F
S11357804CF6BC08C1F6FE78D8F8000018B1012028
S1135790BDE80007F0BD4CF6C002C1F6FE720A2057
S11357A00A21FEF787F9C8F8000080B34CF2CB3128
S11357B0C0F20001FEF70EFD4CF60819C1F6FE79A1
S11357C04846FEF775F84CF28C644FF0000AC1F6B7
S11357D0FE740026A5192846C5F824A0FEF774F81F
S11357E048462946ED60FEF77FF83836B6F50C7F5B
S11357F0F0D14CF61C11D8F80000C1F6FE710A2253
S11358000A60002818BF0120BDE80007F0BD4DF66E
S113581084004DF271724DF6F053C0F20000C0F2F4
S11358200002C0F200037421FDF722FCF0B503AFBF
S11358304DF8048D4228054698BF422510F1020F09
S113584038BF023515F0030209D0053A954203D951
S113585000205DF8048BF0BD25F00302151D10F146
S1135860030F4FF0000098BF15F10B0F02D95DF83C
S1135870048BF0BD15F10A04F9D44CF6BC02C1F650
S1135880FE721268002AF2D01046FEF791FB01283E
S1135890DED1FBF761FD4CF60818C1F6FE78D8F8A6
S11358A00C00C0680646FEF73FF8FBF783FD4CF694
S11358B01C11C1F6FE71D8F800000A68824288BF44
S11358C00860716AC9B98DB12046FDF773FD0146C0
S11358D03046716271B10860416A00220A31C0E940
S11358E00915C0E90B225DF8048BF0BD30465DF864
S11358F0048BF0BD00F012F8AAE74DF684004DF2D7
S1135900DA624CF6EB53C0F20000C0F20002C0F2BF
S113591000034FF4A371FDF7ABFBD4D4D0B502AFB1
S11359200446406A10B10A38FDF766FE0020C4E957
S11359300900FBF711FD20694CF60811C1F6FE7150
S1135940884214D04CF60810C1F6FE702146FDF7CB
S1135950BFFFFBF72FFD4CF6BC00C1F6FE700068DC
S1135960002100220023BDE8D040FEF7F1B8BDE8D5
S1135970D040FBF71FBDD4D44CF60810C1F6FE701E
S113598000687047F0B503AF2DE9000F87B0456A92
S1135990A97BEA7B41EA0221B1F5807F40F0C48013
S11359A0297C6A7C41EA0221082940F0BD80A97C57
S11359B0062940F0B980E97C042940F0B5802946E5
S11359C011F826CF046B11F80A2D48788B78CE781D
S11359D042EA002043EA062240EA024A4CF6201238
S11359E0C1F6FE72107891F80BB091F80D8091F821
S11359F00C900128CDF818A013D14CF6241040F2D5
S1135A006401C1F6FE70C1F6FE716646FFF7FCFA4A
S1135A104CF62012C1F6FE72B446012804BF0020E1
S1135A2010702E4616F8160FC0077DD19AFA8AF028
S1135A30B0F1FE4F4FF0000077DA002C75D02068EB
S1135A4082451DD1107800286ED1012010702046A7
S1135A50514600F0A9F8FFF731F94CF62C11C1F6C4
S1135A60FE7108604CF62410C1F6FE70FFF798FA38
S1135A7040F26400C1F6FE7042F21071016053E01E
S1135A8094F8401009074FD5297D6A7D41EA022127
S1135A90B1F5007F43D0B1F5807F45D149EA0821B3
S1135AA04CEA0B2242EA0141814242D104F1380915
S1135AB048463146062204F05DFE00284FF00000FF
S1135AC033D03046514622464FF0000800F0A4F986
S1135AD00220687505F120003146062285F81480FD
S1135AE006F00FFA4FEA1A2085F82700284600F836
S1135AF026AF4FEA1A61C1704FEA1A4181703046ED
S1135B004946062206F0FDF920786178A278E37808
S1135B1005F81C0FAA70EB706970022005E0284696
S1135B202146524600F0F8F9002007B0BDE8000F06
S1135B30F0BD8A45F8D1616880EA0A0001424FF05D
S1135B400000F2D1A04605F120044EF23261ADF816
S1135B5014000490C0F200012046062204F00AFE5C
S1135B6030B104A92046062204F004FE0028DBD14B
S1135B7008F138003146062204F0FCFD0028D3D099
S1135B800020019006A8A7F12E0101AA00F086F8D2
S1135B900128C9D101984045C6D1069930464246EC
S1135BA000F03AF9C0E7D4D4F0B503AF4DF804BD22
S1135BB082B0054690F8400040075BD4286800286E
S1135BC058D02A200C460021FFF730FE002851D07F
S1135BD02146044641610563806AE96E2928E16231
S1135BE04CD9666A4EF2F451C0F2000130462622C6
S1135BF006F087F9206B062200F13801B01D06F08B
S1135C0080F9206B062200F1380106F1160006F037
S1135C1078F9206B427801788378C07872773246BD
S1135C2002F81C1F9370D070606906F8260F010EED
S1135C30F170010C000A70702A20B170A06201F0AA
S1135C405DFA50B1E86EA8B1C3682146012202B0E2
S1135C505DF804BBBDE8F040184702208DF8000051
S1135C6068464FF0FF31019400F0E2FB10B9204682
S1135C70FFF754FE02B05DF804BBF0BD4CF64400DF
S1135C804DF28B724DF6CD43C0F20000C0F200021B
S1135C90C0F2000340F25A51FDF7EAF9F0B503AF40
S1135CA02DE9000B002900F087800546002800F04C
S1135CB093809046002A00F09F800020C8F80000DE
S1135CC02C688946204601F013FF0646204601F061
S1135CD06FFC68B1002E59D006F1380148460622FF
S1135CE006F00FF9C8F800600120BDE8000BF0BD14
S1135CF0204601F055FCA0B12046494601F0C2FD02
S1135D00002001F0BFFE002840D0014691F8400079
S1135D10400719D5002001F0CBFE01460028F5D13B
S1135D2034E0B4F17F4F12D34EF23261C0F200017D
S1135D304846062206F0E5F8204601F01BFF00283D
S1135D4018BFC8F80000CFE7C8F80010CCE72868EF
S1135D5001F010FF20B12C68C8F8000044B915E028
S1135D60402002F015F8C8F8000078B184686CB1DE
S1135D704CF630110020C1F6FE7100BF0A58A24251
S1135D8008D010306028F9D1002011E00220BDE8CD
S1135D90000BF0BD0E18F07A48B1311D48460622BA
S1135DA006F0AFF8F068C8F80000012000E0022017
S1135DB02C60BDE8000BF0BD4CF644004EF22032DE
S1135DC04DF68D33C0F20000C0F20002C0F20003B1
S1135DD040F27A31FDF74CF94CF644004EF2203291
S1135DE04CF60D13C0F20000C0F20002C0F2000332
S1135DF040F27B31FDF73CF94CF644004EF2203280
S1135E004DF61663C0F20000C0F20002C0F20003B7
S1135E104FF45F71FDF72CF9F0B503AF2DE9000FD6
S1135E2085B0054608461446894601F0A3FE0028BD
S1135E306DD04CF6301B01944FF0FF300026FF2448
S1135E40C1F6FE7B4FF0000ACDE90300029609E09B
S1135E50002804A854D0C0F800A01036602E0AF11F
S1135E60010A1ED075B10BEB060808F1040029469F
S1135E70062204F07FFC5BF806104945E8D028B9F7
S1135E8003A8E8E75BF80600484508D00BEB0600DA
S1135E90817AE0B28142E0D202A80C46DBE7CDF879
S1135EA010A0DDE9030200280BD4002A0FD40BEB69
S1135EB00213120100214BF80210C3E90111D96049
S1135EC006E0D10F0298002A58BF104600E00121D5
S1135ED002014BF8029065B10BEB0014201D29461A
S1135EE0062206F00EF84FF4CB7060810198E06052
S1135EF00DE000291EBF0BEB00100521418106E0D7
S1135F004FF4CB70A8F80A000198C8F80C0005B04B
S1135F10BDE8000FF0BDD4D4F0B503AF4DF804BD17
S1135F2082B0054615F8264F8C466978AB78ED7833
S1135F3044EA012143EA0523DCF8005041EA034125
S1135F40A94214460ED04CF630120021C1F6FE725E
S1135F505358A34203D010316029F9D107E011440A
S1135F60C97A21B1163021466246FFF755FF4CF637
S1135F70AC26C1F6FE76306820B300F0D9FE1428B2
S1135F8020D13068416A11F81A2F4B788D78C9787E
S1135F9042EA032245EA012142EA0141A14211D128
S1135FA001218DF80010019068460021002400F0C2
S1135FB03FFA012802D03068FFF7B0FC00203460BB
S1135FC001F014F802B05DF804BBF0BD80B56F4673
S1135FD0416A006B0A7B4B7B42EA0322082A02D007
S1135FE0B2F5C16F26D111F81ACF4B788A78C978E7
S1135FF04CEA032C42EA0121D0E900234CEA014196
S11360004A401A4201D0002080BD4CF6301C0022C8
S1136010C1F6FE7C5CF802308B4203D01032602A59
