S020000064656D6F5F666C617368776172655F7374617469635F69702E7372656324
S11300003804FE1FC9260000B1250000D9260000CF
S1130010D9260000D9260000D9260000D9260000E0
S11300200000000000000000000000008D06000039
S1130030D926000000000000A5060000010700000A
S10700409D210000FA
S113004403000000540000000700000078000000D2
S113005400000090000000900001000D6004FE1FE9
S1130064B449FE1F00000003C049FE1FC049FE1F1F
S113007400000003000000900000009000000060F5
S113008400010C0D000000900000009000001040DE
S11300940001020D000000900000009040040000E4
S11300A40001010D0000FE1F0000FE1F000000609F
S11300B400010C030000FE1F0000FE1F000010409E
S11300C4000002030000FE1F3800FE1F400400006D
S11300D400000103B849FE1FC049FE1F800400004C
S10700E40000010310
S11300E81000000000000000017A5200017C0E019B
S10B00F81B0C0D0000000000C8
S1070400FFFFFFFFF8
S1070404FFFDFFFFF6
S113044000112233445500008004FE1F800AFE1F61
S1130450C810FE1F1C00FE1F1000FE1F10B5000078
S11304600400000080000000040000008000000080
S10B0470E8030000102700005E
S10B048001000000000000006F
S1130490022818BF704741F2D8004DF24001C1F65E
S11304A0FE70C0F2000100F067BCD4D4002818BF6D
S11304B0704740F26040C1F6FE7001210170704740
S11304C080B56F4682B04BF28A444BF27A404BF2CD
S11304D07E414BF282424BF28643C0F20004C0F2EA
S11304E00000C0F20001C0F20002C0F20003009458
S11304F005F006FA00B900BE40F26044C1F6FE748D
S1130500207818B9012003F0F3FBF9E7012003F088
S1130510EFFBFBE77047D4D4FFF7FCBF00BE704786
S1130520B0B502AF41F2E004C1F6FE7420684FF0AA
S1130530FF3102F093FF012803D020680021FFF768
S1130540EDFF41F2E400C1F6FE70017801B1B0BDE7
S113055001210170FFF7E0FF41F2E805C1F6FE75E5
S113056028680138286008BFB0BD20680021002237
S1130570002302F043FD0128F2D020680021FFF798
S1130580CDFFEDE780B56F4641F2E800C1F6FE709D
S11305900021016041F2E400C1F6FE7041F2EC0278
S11305A00170C1F6FE724FF48070012102F0D8FC94
S11305B041F2E001C1F6FE71086018B90020002183
S11305C0FFF7ACFF00F020F803F04EFC002080BDE4
S11305D041F23413C1F6FE73036041F29410C1F684
S11305E0FE700860802010607047D4D441F29433C8
S11305F0C1F6FE73036041F2F430C1F6FE70086088
S1130600802010607047D4D480B56F4684B041F226
S1130610E800C1F6FE70016841F2F45C013101604A
S113062044F6C010C1F6FE700121CDE9001040F27D
S113063079604CF2B3214BF21C53C1F6FE7CC0F23C
S11306400000C0F20001C0F200034FF48072CDF844
S113065008C003F077F841F25461C1F6FE71002836
S113066008601CBF04B080BD0020002104B0BDE8B8
S11306708040FFF753BFD4D4D0B502AF0446FFF790
S11306804FFF2046BDE8D040FFF71ABF1EF0040F0D
S11306900CBFEFF30880EFF309800149084700001D
S11306A0290700000D4B1968EFF309821EF0100FA3
S11306B008BF22ED108A22E9F04F0A604FF01000C3
S11306C080F31188BFF34F8FBFF36F8F03F074FB78
S11306D04FF0000080F3118800F002B82C37FE1FA1
S11306E0064801680A68B2E8F04F1EF0100F08BF10
S11306F0B2EC108A82F30988704700002C37FE1F81
S1130700D0B502AFEFF31184102080F3118803F009
S11307104DFC30B14EF60450CEF200004FF0805143
S1130720016084F31188D0BD806910F8020C02289E
S113073008BFFFF7D5BF042838BF704780B56F46A0
S11307404BF250504CF27E024BF61B03C0F20000F9
S1130750C0F20002C0F200034FF47E7101F0DEFE2D
S1130760014640F2857022F00102C0F200004FF011
S1130770807C01E905106FF00202A1F1440041E917
S11307800923704700BE00BFFEE7D4D480B56F468E
S11307904EF62250CEF20000F021017000F016F85F
S11307A04EF63470CEF20000016841F04041016021
S11307B062B6BFF36F8FEFF3148C2CF0040C8CF340
S11307C01488BFF36F8F02DF00BEFDE741F2BC6007
S11307D0C1F6FE70006844F6D351C1F26201A0FB79
S11307E001014FF0FF3000EB91110020B0EB116FCD
S11307F018BF70474EF21002CEF2000251604EF65E
S11308002351CEF20001F0230B709060072010609A
S11308107047D4D41021EFF3118081F3118841F291
S11308205861C1F6FE710A68531C002A0B6018BF98
S1130830704741F25C61C1F6FE7108604EF60450E7
S1130840CEF200000068C00500D1704780B56F4645
S11308504BF250504BF276524BF62773C0F2000025
S1130860C0F20002C0F2000340F2A44101F056FEBF
S113087041F25860C1F6FE70016859B10139016056
S113088018BF704741F25C60C1F6FE70006880F3E7
S11308901188704780B56F464BF250504CF6CD32FC
S11308A04BF22053C0F20000C0F20002C0F2000379
S11308B040F2AD4101F032FED0B502AF72B64EF255
S11308C00C04C4F2010403F0E3F8B4F90000B0F13D
S11308D0FF3F09DDBFF34F8F30BFBFF36F8F62B6A9
S11308E0BFF36F8F72B61FE04EF2FE31C4F2010106
S11308F00A884AF2025CCFF6FF7C002342F42542C8
S1130900A1F800C023800A80BFF34F8F30BFBFF32C
S11309106F8F62B6BFF36F8F72B60A88A1F800C0FA
S1130920208042F42540088062B6BDE8D04003F040
S11309300FB9D4D480B56F46EFF30380103840B2BA
S1130940002807D4E421C0F2E00161F31F200078FD
S11309500F2817D94EF60C50CEF20000006840055F
S113096058BF80BD4BF250504CF643024BF62D134A
S1130970C0F20000C0F20002C0F2000340F22161A4
S113098001F0CCFD4BF250504CF643024CF6793357
S1130990C0F20000C0F20002C0F2000340F20F6196
S11309A001F0BCFD80B56F4682B04169002201921E
S11309B019B30279D31E022B14D208680068D0B18F
S11309C001AA002103F04CFE0198A0B14EF6045098
S11309D0CEF200004FF080510160BFF34F8FBFF3A0
S11309E06F8F08E0092A06D10069006802B0BDE8EB
S11309F0804005F025BB02B080BD4CF290004CF263
S1130A003E524CF28E13C0F20000C0F20002C0F25B
S1130A10000340F2071101F081FDD4D4F0B503AF17
S1130A204DF8048D82B040F21801C1F6FE710E68D3
S1130A30002E5CD00446D6E9000181600D68002DCB
S1130A4064D069684878012801D100BFFEE7AA682C
S1130A5028681268904708B10E281FD1A968286831
S1130A608969884735688046296881B970684CF27D
S1130A70DB11D0E901C240F65940C0F20000C0F2D7
S1130A8000012346CDE900C502F096FF356855F80C
S1130A90040F40B1B8F1000F24D117E0A968286809
S1130AA0496888471EE070684CF2BE21D0E903C251
S1130AB040F60950C0F20000C0F200012346CDE91F
S1130AC000C502F079FFB8F1000F0BD1306801685E
S1130AD041B1416831B144F25031C0F25401C160B6
S1130AE0012000E0002002B05DF8048BF0BD4CF260
S1130AF090004CF60E624CF28E13C0F20000C0F26D
S1130B000002C0F20003722101F008FD4CF29000D3
S1130B104CF60E624BF65903C0F20000C0F200021C
S1130B20C0F20003772101F0F9FCD4D4F0B503AF8F
S1130B304DF804BD40F21800C1F6FE7000688B6ADF
S1130B4040680C4600683B2B9CBF3C23A362816831
S1130B5000684D69616A16461A46A847012E054683
S1130B6002D1204604F030F9B5FA85F040095DF869
S1130B7004BBF0BD80B56F4640F21800C1F6FE70AC
S1130B800068406800688168006889698847B0FA2D
S1130B9080F0400980BDD4D4F0B503AF4DF804BD56
S1130BA069B341F260660546C1F6FE764CF6DF3263
S1130BB00C46C0F20002304611212B4608F046FFD5
S1130BC0002040F61D21C4E90800C0F2000140F6EF
S1130BD02D3240F6753304F1080CC4E90500E061D8
S1130BE02046C0F20002C0F20003C4E900658CE8AC
S1130BF00E0006F06FF820465DF804BBF0BD4CF221
S1130C0090004CF2B9124CF64673C0F20000C0F2E8
S1130C100002C0F200034FF4997101F07FFCD4D4B8
S1130C20B0B502AF044608F0B6FE054608F0B3FEC0
S1130C30C5EA004101202160B0BDD4D4D0B502AFD3
S1130C4082B0002001AC01902046FFF7E9FF019833
S1130C500028F9D002B0D0BD80B56F4684B040F210
S1130C60180B04464FF0000AC1F6FE7B0DF104098F
S1130C700DF1080803E000BF304604F0A5F8002099
S1130C8000214FF0FF3203F08DFC40F2EA500021C6
S1130C90CDF804A004F020F80028F0D0064600BFE8
S1130CA0DBF800004A4640680068816800688B6889
S1130CB0716A984705460198716AC6E90A04204694
S1130CC006F036F9B5F57A6F306301D0002DD3D133
S1130CD00028D1D0706A05F0C7F80128CCD10120D2
S1130CE08DF8080040460021039604F0D5FD012844
S1130CF0C2D140F2EA500021CDF804A003F0ECFF89
S1130D0006460028CCD1BAE780B56F4684B040F2DD
S1130D101801C1F6FE710E680022716840F6A17ACE
S1130D200C6841F2883B0DF1080940F6A1758DF875
S1130D3008200190039008E080464846002104F012
S1130D40ABFD012808BF45467168486902F0D0FF31
S1130D50A1682068896988478542F5D0584518BF3D
S1130D605045E9D00028EFD10198006A04F052FD03
S1130D7071680025E9E7D4D480B56F4645F2542262
S1130D80C5F24F020260084600F002F8002080BD60
S1130D90F0B503AF4DF804BD044600F05FF841F22E
S1130DA0A86CEFF31080012181F31088C1F6FE7C5A
S1130DB0DCF8001039B940F60351C4F204010022F2
S1130DC00A7040220A70DCF800100131CCF80010DF
S1130DD080F31088208820B340F6000E0021C4F26E
S1130DE0040E07E00EEB801040F822302088013119
S1130DF0814216D2606800EBC102928850F831300B
S1130E00100ADD03D2B2EDD50EEB801555F8226041
S1130E1026F4803645F8226023F4803645F82260B3
S1130E20E0E7EFF31081012080F31088DCF8000084
S1130E3020B1DCF800000138CCF80000DCF8000038
S1130E4038B940F60350C4F2040000220270802234
S1130E50027081F310885DF804BBF0BDF0B503AFF8
S1130E602DE9000F81B004460088002861D044F2C7
S1130E7040084EF2BB494DF24E0BC4F20408002662
S1130E80C4F20109C0F2000B04E000BF208801365F
S1130E9086424ED2002508E008F81500C82001213A
S1130EA001F040FB0135032DF0D060683BF81520BC
S1130EB000EBC60189889142F4D150F8360099F8C4
S1130EC00010012200F0B85002FA05FAB0F1807F58
S1130ED00AEA010016D158B9012001F0CDFB99F8B6
S1130EE0000040EA0A0089F80000012001F098FBA4
S1130EF018F915000028D5D418F8150040F0800022
S1130F00CAE700BF58B1012001F0B6FB99F8000010
S1130F1020EA0A0089F80000012001F081FB18F999
S1130F201500B0F1FF3FBDDC18F8150000F07F009C
S1130F30B2E701B0BDE8000FF0BDD4D4F0B503AF03
S1130F404DF8048D82B00D460446087840F60051F1
S1130F50C4F2040101EB802000F5083000F5A15033
S1130F600026C4E90150E660A87B4FF40042B0FAC1
S1130F7080F04009000108700120207420460021FF
S1130F80019600F037F90DF1040800BF2046002156
S1130F90424600F04BF89DF805106868090606F112
S1130FA0010601D58642F1D3864206D244F65900A1
S1130FB0C5F250202060002000E0142002B05DF84B
S1130FC0048BF0BD002201460274C0E90022826055
S1130FD00020CA607047D4D4F0B503AF4DF8048D37
S1130FE082B0054601200C460026287428460021BC
S1130FF04FF40042019600F0FDF80DF1040800BF23
S113100028460021424600F011F89DF80500616869
S1131010000606F1010601D58E42F1D314208E425A
S113102038BF002002B05DF8048BF0BDF0B503AF0B
S11310304DF8048D9046054620230620072203E040
S11310409EB2013B012E28D96E68B668012EF7DBEB
S1131050AC680136013E012E2060FBD86E68B6688C
S1131060012EEDDB013600BF013E012E2260FBD8CC
S11310706E68B668012EE3DB013600BF013E012E27
S11310802260FBD86E68B668012ED9DB013600BF3A
S1131090013E012E2060FBD8D2E72846022200F050
S11310A05DFA6868816801294EDBA8680131002275
S11310B0013901290260FBD869688968012943DB89
S11310C001310122013901290260FBD8696889686C
S11310D0012939DB01310122013901290260FBD8E0
S11310E06968896801292FDB01310022013901294E
S11310F00260FBD868688168012925DBA868013192
S1131100002200BF013901290260FBD8696889689F
S1131110012919DB01310122013901290260FBD8BF
S11311206968896801290FDB01310122013901292C
S11311300260FBD869688968012905DB0131002256
S1131140013901290260FBD8A86800221023012478
S11311504FF0000C07E000BF0668C6F3C00646EA7D
S11311604C0C013B2BD96E68B668012EF4DB0136BA
S1131170013E012E0260FBD86E68B6680168012E3C
S1131180C1F3C00141EA4C0CEBDB0136013E012EF8
S11311900460FBD869688E68012EE2DB013600BF6B
S11311A0013E012E0460FBD869688E68012ED8DBED
S11311B0013600BF013E012E0260FBD8D1E768680A
S11311C08368012B0FDBA8689A0F9B00002500BFE2
S11311D0591E62F10006D3F1010375EB02020B46BE
S11311E032460560F4D30020C8F800C05DF8048BD3
S11311F0F0BDD4D4F0B503AF2DE9000B9146804681
S113120020230620072203E09EB2013B012E2AD9A7
S1131210D8F80460B568012DF6DBD8F8086001350C
S1131220013D012D3060FBD8D8F80450AD68012D84
S1131230EADB0135013D012D3260FBD8D8F80450BA
S1131240AD68012DE0DB0135013D012D3260FBD895
S1131250D8F80450AD68012DD6DB0135013D012DD0
S11312603060FBD8D0E74046012200F077F9D8F887
S11312700400816801295DDBD8F8080001310622E9
S1131280013901290260FBD8D8F8041089680129C2
S113129050DB0131072200BF013901290260FBD86C
S11312A0D8F804108968012944DB0131072200BF02
S11312B0013901290260FBD8D8F804108968012992
S11312C038DB0131062200BF013901290260FBD855
S11312D0D8F80400816801292CDBD8F80800013112
S11312E0022200BF013901290260FBD8D8F804109A
S11312F0896801291EDB0131032200BF013901295C
S11313000260FBD8D8F804108968012912DB013186
S1131310032200BF013901290260FBD8D8F8041068
S11313208968012906DB0131022200BF0139012944
S11313300260FBD8102002214FF0030C062307247F
S113134004E000BF01384FEA490958D9D8E90156E9
S11313505FEA0942AD682BD4012DF3DB013500BFF0
S1131360013D012D3160FBD8D8F804209568012D8A
S1131370E8DB0135013D012DC6F800C0FAD8D8F8E4
S113138004209568012DDDDB013500BF013D012DF1
S1131390C6F800C0FAD8D8F804209568012DD1DB2E
S11313A0013500BF013D012D3160FBD8CAE700BF04
S11313B0012DC7DB013500BF013D012D3360FBD892
S11313C0D8F804209568012DBCDB0135013D012DC1
S11313D03460FBD8D8F804209568012DB2DB0135C0
S11313E0013D012D3460FBD8D8F804209568012D07
S11313F0A8DB0135013D012D3360FBD8A2E7D8F805
S113140004008268012A10DBD8F80800910F9200CA
S1131410002300BF561E61F10005D2F1010273EBF7
S11314200101324629460360F4D30020BDE8000BD5
S1131430F0BDD4D4D0B502AF82B00446406840F6C3
S1131440E152407B04210028204608BF40F2E1120B
S1131450E260FFF7CFFE204600214FF49052FFF7E1
S1131460C9FE01AA20460421FFF7E0FD002002B0D6
S1131470D0BDD4D4F0B503AF2DE9000B82B006463D
S1131480002001AD144688460190304601212A46C9
S11314909946FFF7CBFD304601212A46FFF7C6FDEA
S11314A00198410702D441F288303AE0F1684A05D4
S11314B006D409050BD480060FD441F2893030E0FC
S11314C0216841F002012160F1680905F3D5216822
S11314D041F0010121608006EFD501AA30460521C3
S11314E0FFF7A4FD0198410544BF0221C9F800108B
S11314F0010505D5D9F8001041F00101C9F8001023
S1131500C1050AD441064FF0020158BFC0F340118F
S1131510000648BF032109B9C5E70421C8F8001033
S1131520002002B0BDE8000BF0BDD4D4B0B502AFCA
S113153082B001AD01212A460446FFF777FD20461B
S113154001212A46FFF772FD019840074FF0000081
S113155058BF41F2883002B0B0BDD4D4F0B503AF67
S11315604DF8048D4368022A5B694FF4A0469A68DB
S113157008BF4FF4C046127846EA810141EAC2111D
S11315804FF00E0E02234FF0030C06224FF0070813
S113159005E000BFBEF1010E4FEA410153D9D0E985
S11315A001650C04B66827D4012EF3DB013600BFB5
S11315B0013E012E2B60FBD84468A668012EE9DBAE
S11315C0013600BF013E012EC5F800C0FAD84468B8
S11315D0A668012EDEDB0136013E012EC5F800C0EF
S11315E0FAD84468A668012ED4DB0136013E012EE8
S11315F02B60FBD8CEE700BF012ECBDB013600BF4A
S1131600013E012E2A60FBD84468A668012EC1DB86
S1131610013600BF013E012EC5F80080FAD84468A7
S1131620A668012EB6DB0136013E012EC5F8008006
S1131630FAD84468A668012EACDB0136013E012EBF
S11316402A60FBD8A6E75DF8048BF0BDF0B503AFC4
S11316502DE9000F81B00446006844F64502C4F247
S11316605452904201D10E20D8E00D464E6B0878BA
S113167044F20011C4F2060101EB802020610090C5
S1131680287847F2000BC4F2040B0BEB002000F5A2
S1131690E83A0020C4F814A06560A061697D306850
S11316A0090109F055FD6068017D7068090109F0C0
S11316B04FFD60688169E1B1417829B190F81580E6
S11316C0B8F1000F07D114E0017D407D00EB010863
S11316D0B8F1000F0DD04FF0000900BF6068D0E9E9
S11316E0060150F8290009F033FD09F10109C84544
S11316F0F4D1A86A0121E061286B606200202062B5
S1131700EFF3108081F3108862681278DBF8003000
S1131710C2F10F02914023EA0101CBF80010DBF87B
S1131720001080F310886069016841F001010160D4
S113173041F2BC60C1F6FE7000684EF20011C0F2C6
S1131740F551B1FBF0F00121013000F0EBFE6068CF
S1131750616980688A6F60F305028A67606840790E
S11317608A6F00F0030022F4403242EA00408867A6
S11317706068C16A07C91268904741F2883188429B
S11317804AD000284AD16068C06A81680068496903
S1131790884700993720086140F69F70C4F2FF70B3
S11317A0CAF82800DAF830004EF2001240F4800043
S11317B0CAF830006068CEF2000290F8241090F964
S11317C020000901831883F8001341F2AC61C1F6CB
S11317D0FE7141F8204046F20031C4F2000151F894
S11317E0203023F4803341F8203051F8201000F0E9
S11317F01F010123400903FA01F102EB8003BFF347
S11318005F8FC3F8801142F8201044F64500C4F2FB
S113181054502060002001E040F6A57001B0BDE8FE
S1131820000FF0BDF0B503AF4DF8048D04464068D9
S1131830D4E9045890F8201048B2002813D401F0D9
S11318401F00012202FA00F01C2202EAD1014EF22A
S11318508012CEF200028850BFF34F8FBFF36F8F18
S1131860606890F8200041F2AC6140B2C1F6FE71AC
S1131870002641F820606068C06A81680068496891
S11318808847A869012120F00400A861D8F8300035
S113189047F2000320F48000C8F830002E60A661EF
S11318A0EFF3108081F310886268C4F204031278A5
S11318B01D68C2F10F02914029431960196880F331
S11318C010882660002066605DF8048BF0BDD4D4D7
S11318D0C37E012B1CBF40F6A1707047F0B503AF67
S11318E04DF804BD03691B689B0563D485682B68A8
S11318F0002B39D44FF6604CCCF2FF7C012409E074
S113190043691E69012E18BF1C6185682B68B3F1F9
S1131910FF3F29DD43689E7816B92E68360628D421
S11319202E68360116D5C37E012B48D103691B6886
S11319309B053FD42B68002BE2D42B6803EA0C03ED
S11319402B6083681E6846F000461E608368DB686F
S11319508360D5E7AC68AE885D79761904D05B788E
S113196093B300200C603AE04FF47A605DF804BB56
S1131970F0BDC17E012922D101690968890519D404
S1131980296800290BD4296801EA0C0129608168BF
S11319900A6842F000420A608168C968816040694F
S11319A0016901291CBF0121016140F6A4705DF8A1
S11319B004BBF0BD40F6A2705DF804BBF0BD40F678
S11319C0A1705DF804BBF0BD0546084621461446E7
S11319D0324609F0C1FB284600F006F8224616609C
S11319E05DF804BBF0BDD4D4C17E01291CBF40F610
S11319F0A170704701690968890544BF40F6A27067
S1131A00704781680A68002A0ED40A684FF660435A
S1131A10CCF2FF731A400A6081680A6842F00042FF
S1131A200A608168C968816040690169012904BF4D
S1131A30002070470121016100207047826813680B
S1131A40002B44BF40F6A6707047916081684FF642
S1131A5060430A68CCF2FF731A400A6081680A681E
S1131A6042F000420A608168CA684169826008697C
S1131A7001281CBF0120086100207047C37E012B90
S1131A801CBF40F6A1707047F0B503AF4DF804BD1C
S1131A9003691B689B0520D40C4641684B780BB343
S1131AA0012B04BFC1688C60C168CA80C1680A6820
S1131AB022F040520A60C1680A6842F030420A606B
S1131AC0C168CA684169C260886801281CBF0120D6
S1131AD0886000205DF804BBF0BD40F6A2705DF89C
S1131AE004BBF0BDC3681E68002E02D4C9699142CC
S1131AF004D240F6A3705DF804BBF0BD99680646B5
S1131B0008462146154609F027FB71682A464B789A
S1131B103046C5E7F0B503AF2DE9000F87B0834623
S1131B2040689BF81A10D0F83480012940F088806E
S1131B30DBF81C0000218BF81A10F8B1DBF8200048
S1131B400DF1040930B1024692E87A40CC468CE8A3
S1131B507A4000E0484600210171DBF8041009785E
S1131B600160DBF824104161DBF81C108847DBF8C6
S1131B70200000281CBF99E87E007EC09BF8180056
S1131B8007F8350CDBF80490DBE9046A99F82010B7
S1131B9048B2002814D401F01F00012202FA00F018
S1131BA01C2202EAD1014EF28012CEF200028850C9
S1131BB0BFF34F8FBFF36F8FDBF8040090F8200062
S1131BC041F2AC6140B2C1F6FE71002541F82050EB
S1131BD0DBF80400C06A8168006849688847B06916
S1131BE0012120F00400B061DAF8300047F200036C
S1131BF020F48000CAF830003560CBF81850EFF3B9
S1131C00108081F31088DBF80420C4F204031278F6
S1131C101E68C2F10F02914031431960196880F3C4
S1131C20108858464946CBE90055FFF70FFD0028B8
S1131C3040F0CD8017F8351CDBF804008BF8181041
S1131C40C06A81680068C9698847014641F28832E0
S1131C5091429BF818104FF0000008BF40F6A170A5
S1131C6004D1012909D10021012202E029B901216D
S1131C7002228BF819208BF818109BF819100129EF
S1131C801ED0022940F0A3800020DBF804108BF85A
S1131C901900497DD8F80000090109F059FADBF868
S1131CA00400017DD8F80400090109F051FADBF8B9
S1131CB004008169C9B3417821B3457D35BB34E063
S1131CC00021DBF810208BF81910136823F040036F
S1131CD01360136823F020031360DBF81C208BF8D7
S1131CE01B10002A73D0DBF820E00DF10409BEF1CB
S1131CF0000F80463CD0724692E87B00CC468CE8CC
S1131D007B0036E0017D427D551875B1002600BF89
S1131D10DBF80400D0E9060150F8260009F018FAAF
S1131D200136B542F4D1DBF8040001218BF81B1015
S1131D30016958460022002500F094F85846002115
S1131D4000F082F928B102218BF81B508BF819108E
S1131D503DE0DBF81C00C8B3DBF820000DF10408FB
S1131D6000B384469CE87A40424682E87A401AE00E
S1131D70CE4602208EF80400DBF804000078CEF88A
S1131D800000DBF82400CEF81400DBF81C107046C9
S1131D908847DBF8200000281CBF99E87E007EC03D
S1131DA0404614E0404601210171DBF80410097833
S1131DB00160DBF824104161DBF81C108847DBF874
S1131DC0200000281CBF98E87E007EC0002007B0D9
S1131DD0BDE8000FF0BDD4D4D0B502AF0446C07E38
S1131DE001280AD1606801220169204600F03AF80E
S1131DF02046012100F028F910B140F6A170D0BDB1
S1131E006068C06A81680068C9698847014641F210
S1131E1088320020914208BF40F6A170D0BDD4D4CE
S1131E2042684369506BD3F8D8308BB1D0F804C002
S1131E30A3F11000604503D2107D0CEB00101038A4
S1131E4082682AB1006800285EBF0A6000207047DB
S1131E50222070478446C0E907130020CCF82420D0
S1131E607047D4D4F0B503AF2DE9000B8146D0E917
S1131E700450904603680E4643F00102026041F2AA
S1131E80BC60C1F6FE7000684EF20012C0F2F5525A
S1131E90B2FBF0F00121013000F044FBD9F804005A
S1131EA0D9F8141080688A6F60F305028A67D9F83C
S1131EB0040040798A6F00F0030022F4403242EAC1
S1131EC00040886771783078B278090441EA00608C
S1131ED0F37840EA022031797279184442EA012108
S1131EE0C5F8C000C5F8C810D9F80430597D586B3E
S1131EF089B3002110224FF0004C00260568DC69EC
S1131F00AB1823F80A4C23F80C1C0468144443F857
S1131F10044CD9F804401032A469002C1ABF54F8B8
S1131F20264043F810CC002443F8084CD9F8043078
S1131F3001365C7DA642E1D3A91851F8202D42F068
S1131F4080420A600268CA60D9F80430C9F80820DF
S1131F501A7D12B931E0197DB9B34FF0000E102289
S1131F604FF0010C00260AE0002100BF43F8081CD2
S1131F70D9F804100136097D10328E421BD245680F
S1131F80AB1823F80ACC23F80CEC43F810EC4168A6
S1131F90114443F8041CD9F80440617800294FF037
S1131FA00001E3D1A1690029DED0647D01EB840145
S1131FB051F82610DAE7A91820390A6842F080425D
S1131FC00A604068C860C9F80C00D9E90410B8F187
S1131FD0010F06D18A6942F002028A614FF480023D
S1131FE009E0026B42F480020263026B42F4802235
S1131FF002634FF40012036B1A43026340F2EE5281
S11320008A6014220A65D9F80420D268CA66016875
S113201041F040010160D9F808100162D9F80C10B0
S11320208161D9F804108978002918BF0121C901F8
S113203081630021816440F20F7101650121816592
S1132040BDE8000BF0BDD4D4F0B503AF2DE9000B0F
S113205084B0044662680020D26A03900290019022
S11320609068D4E9046885691068894603A902AABE
S113207001ABA84710B140F6A17078E0039801388D
S11320800328F8D8DFE800F0021C0B1430680121A3
S113209020F002003060306820F0040018E030685E
S11320A0012120F002003060306840F004000FE0AD
S11320B0306840F002003060306840F0040006E010
S11320C0306840F002003060306820F004000021E5
S11320D0B9F1000F306008D0306840F4007030600F
S11320E0306840F04000306040E031BB6068007907
S11320F0012822D14FF6FF70706500207066C8F881
S1132100700031684DF2DC0C41F400213160DDE9EE
S11321100112C0F2000C01F0030162F3830100BF5D
S11321200CEB80031CF820505A780D40954222D0C5
S113213001300828F4D1002126E0306820F48030F2
S11321403060306820F4003030606068C0783168F6
S113215060F300013160306840F040003060306866
S113216040F0200030600120C8F81000002004B0C6
S1132170BDE8000BF0BDD978052801D0032803D1B0
S1132180306840F4803002E0306820F48030306001
S113219030680129D6D140F40030D5E7F0B503AF5B
S11321A02DE9000F89B0EFF303804FF0704101EB8C
S11321B0006041F2AC618015C1F6FE7151F800A0D7
S11321C0DAF80420DAE90410D2F834B00A6901928A
S11321D0856A6B0207D5019A920744BF01228AF8E7
S11321E01A20019A0A618562DAF81C00002846D098
S11321F04DF29C024FF00008C0F200020093CDF8AB
S113220008B008E04DF29C02C0F2000208F1010897
S1132210B8F1060F30D002EBC8004068DBF80810B4
S113222008402842F2D0DAF8200012F838C048B149
S113223086469EE8560A03AB83E8560ADDF808B0E2
S113224001E000BF03A880F804C0DAF8041009789C
S11322500160DAF824104161DAF81C108847DAF8D2
S113226020C0BCF1000FCDD003A9AE4691E87D009B
S11322708CE87D007546C5E70098002813D4EFF379
S113228003804FF0704101EB006046F2003180158D
S1132290C4F20001425822F480324250405809B03E
S11322A0BDE8000FF0BD4DF2CC0900214FF001084C
S11322B0C0F2000906E000BF01215FEAC8704FF0D8
S11322C00008DCD009EBC10040689BF80C201040EA
S11322D0019A1042F0D0DAF8200019F831C048B160
S11322E0034693E876080DF10C0E8EE87608DDF8C7
S11322F008B000E003A880F804C0DAF804100978F4
S11323000160DAF824104161DAF81C108847DAF821
S113231020C0BCF1000FCFD003A991E87D008CE868
S11323207D00C9E74EF22000C4F20100817940F239
S113233038420068C1F6FE7252F82110C0F3026000
S113234021FA00F041F2BC61C1F6FE7108607047E9
S1132350F0B503AF2DE9000B4EF28045C4F2010540
S11323604CF200144AF20350C4F2010425F8820C22
S11323700020208040F2384842F6005041F6004CDC
S11323804EF22006C1F6FE78C0F2311041F200216F
S11323904FF4004241F60033C0F64E6CC4F201061D
S11323A0C0F27A01C0F2B70388E80F00C8E9042C30
S11323B0B079316858F82000C1F3026141F2BC6978
S11323C0C840C1F6FE79C9F80000202005F86D0C5C
S11323D0092086F88200287810B96878800753D0DD
S11323E0287840B901202870C820012100F09AF80B
S11323F028780128FCD1002068702870062086F80F
S113240085000020B07400BF307F0007FCD54FF476
S11324101C5030810020B072307F8006FCD5022031
S1132420207741F22120C2F2011030600520B07102
S1132430B079316858F82000C1F30261C840C9F886
S1132440000042F20400C4F20000F12101700E21E8
S1132450BFF35F8F0171F021BFF35F8F0170012023
S11324604021307486F8320086F8330031714FF41D
S1132470254125F8821CA080A0880028FCD10120D9
S11324802080BDE8000BF0BD4FF47A7000F002F834
S1132490B4E7D4D47047D4D4B0B502AF44F2240422
S11324A0C4F204040025C8200121257100F03AF883
S11324B0257000BF20780028FCD1207840F002006D
S11324C0207000BF20788007FCD4002004F8020CA0
S11324D014F8020C0028FBD1002004F11C0100BFF9
S11324E011F8102002F07F0201F8102011F91020D9
S11324F0002AFBD401300328F2D1012000F0BCF8FB
S11325004EF2BB41C4F20101002201200A70BDE871
S1132510B04000F085B8D4D47047D4D400BE00BF16
S1132520FEE7D4D441F2BC62C1F6FE72126841F2F5
S11325300023C0F27A039A4201FB00F00FD340F665
S1132540FF01C0F23D0111444DF68362C4F21B3217
S1132550A1FB0212110DA0FB0101D9B11FE04CF641
S1132560002348F63811C3F69A33C0F24101B3FB95
S1132570F2F2884206D24FF47A714843B0FBF2F08B
S1132580800807E09200B0FBF2F0884207D24FF4D3
S11325907A714843002808BF704700F005B84FF02F
S11325A0FF3000F001B8D4D401380028FCD17047C2
S11325B0F0B503AF2DE9000B46F22018C4F2000871
S11325C0B8F80000B8F8201041F2746501EA000977
S11325D01FFA89F60024C1F6FE7502E001340D2CC1
S11325E00AD026FA04F0C007F8D055F824100029C0
S11325F0F4D0E0B28847F1E7A8F81090BDE8000BEA
S1132600F0BDD4D44DF24C00C0F200000088002884
S11326101EBF46F20031C4F2000108607047D4D4F2
S11326200122EFF3108182F3108841F2B062C1F607
S1132630FE7232F8103023B132F81030013B22F828
S1132640103032F8102012B181F3108870474EF226
S1132650FE3CC4F2010C4DF21C12BCF80030C0F276
S1132660000232F8100043F4254222EA0000ACF8DC
S1132670000081F31088704780B56F460122EFF3A4
S1132680108182F3108841F2B062C1F6FE7232F812
S113269010308BB94EF2FE3C4DF21C13C4F2010C07
S11326A0C0F20003BCF800E033F8103043EA0E0334
S11326B043F42543ACF8003032F81030013322F8EB
S11326C0103081F3108880BD80B56F4600F006F8A5
S11326D0FDF758FFFEE7D4D400BE7047F0B503AF52
S11326E02DE9000B4EF60850CEF200004FF47001B5
S11326F0C0F8801040F20001C0F200010160002027
S11327000024FDF7C5FEFFF723FE01200125FDF798
S1132710BFFE40F60450C4F200004FF4254104808B
S113272020F8041C40F2380140F24408C1F6FE715E
S1132730C0F20008416001F58061D8F80060816052
S113274046F22011C4F200014FF480520A80058041
S11327508EB1D8F804003546041D03E0013D04F1B0
S11327600C0408D060790028F8D154E90101091A51
S113277008F0EEFCF2E7D8F80890B9F1000F13D096
S1132780D8F80C004D4600F1080403E0013D04F1C3
S1132790100409D060790028F8D154E902022168B4
S11327A0121A08F0D9FCF1E7FFF7BCFDFFF774FE3D
S11327B00220FDF76DFE9EB1D8F804004FF4807539
S11327C0041D03E0013E04F10C0409D06079B5EB6B
S11327D0002FF7D154E90101091A08F0B9FCF1E717
S11327E0B9F1000F16D0D8F80C004FF4807600F140
S11327F0080404E0B9F1010904F110040AD0607975
S1132800B6EB002FF6D154E902022168121A08F03F
S1132810A3FCEFE744F6B814C1F6FE74204607F0B3
S1132820EBF8204607F0FEF84DF24A504DF24A51BB
S1132830C0F20000C0F20001091A8C10012C06DB62
S1132840051F00BF55F8040F8047013CFAD1FFF77C
S1132850D9FE0020BDE8000BBDE8F040FFF75CBEE8
S1132860B0B502AF00F10805092D01D200250AE038
S113287010F0070107D009398D429ABF20F00700F4
S113288000F11005002501F003F941F2C062C1F620
S1132890FE72116829B141F2C460C1F6FE7000688D
S11328A026E041F2D063C1F6FE73D81D590703F543
S11328B0005118BF20F0070341F2C860C1F6FE7052
S11328C00024C0E9003421F00700A0F108011160E0
S11328D040E90244C81A116843F2D062C1F6FE729C
S11328E0C3E90010106041F2C462C1F6FE721060C8
S11328F0012D4FF0000471DB85426FD841F2C860AE
S1132900C1F6FE70026841F2D06CC1F6FE7C6245ED
S1132910C0F0898041F6FF706044824200F28380F7
S11329205068A84253D21068002850D041F6FF7373
S11329300CEB0304604567D313460246A04263D8F8
S11329405068A84202D210680028F3D18A4244D0C9
S1132950186800F10804644574D341F6FF706044BC
S113296084426FD8106818605168A9427AD3481B12
S113297011280DD302EB050C5FEA4C7140F0828004
S1132980CCF80400556018685051C3F800C0516871
S113299041F2C465C1F6FE7543F2D06C2B68C1F6F2
S11329A0FE7CDCF800005B1A834241F000404FF0EB
S11329B000012B6038BFCCF80030C2E9001043F2AC
S11329C0D460C1F6FE7001680131016006E041F295
S11329D0C863C1F6FE738A42BAD1002401F0B8F884
S11329E0600704BF2046B0BD4CF2C6004BF6591236
S11329F04BF65743C0F20000C0F20002C0F20003DD
S1132A0040F25711FFF78AFD4CF2C6004BF65912FB
S1132A104CF6EE23C0F20000C0F20002C0F2000344
S1132A20FB21FFF77BFD4CF2C6004BF659124CF626
S1132A30EE23C0F20000C0F20002C0F20003F52150
S1132A40FFF76CFD4CF2C6004BF659124CF2505392
S1132A50C0F20000C0F20002C0F2000340F205110F
S1132A60FFF75CFD4CF2C6004BF659124BF297632C
S1132A70C0F20000C0F20002C0F2000340F20D11E7
S1132A80FFF74CFD4CF2C6004BF659124CF20313FF
S1132A90C0F20000C0F20002C0F200034FF48B71D8
S1132AA0FFF73CFDF0B503AF4DF804BD00285DD041
S1132AB041F2D065A0F10804C1F6FE75AC4258D3CA
S1132AC041F6FF7129448C4253D850F8041C002964
S1132AD05FD52268002A6CD121F0004140F8041C23
S1132AE0064600F0D5FF41F2C460C1F6FE7056F808
S1132AF0042C016841F2C8631144C1F6FE730160FD
S1132B00194600BF08460968A142FBD3984206D083
S1132B10A8425ED341F6FF732B44984259D84368C8
S1132B20C618A64202D11A4404464260A3188B4236
S1132B300BD141F2C063C1F6FE731B68994204D005
S1132B4049681144616001680968A042216018BFA6
S1132B50046043F2D860C1F6FE700168013101607F
S1132B605DF804BBBDE8F04000F0F2BF5DF804BBC3
S1132B70F0BD4CF2C6004CF2C2524CF2D223C0F269
S1132B800000C0F20002C0F200034FF4B571FFF779
S1132B90C5FC4CF2C6004CF2C2524CF24033C0F2B7
S1132BA00000C0F20002C0F2000340F26B11FFF714
S1132BB0B5FC4CF2C6004CF2C2524CF6E533C0F2FE
S1132BC00000C0F20002C0F200034FF4B671FFF738
S1132BD0A5FC4CF2C6004BF666124CF2E913C0F2A7
S1132BE00000C0F20002C0F200034FF4FD71FFF7D1
S1132BF095FCD4D4B0B502AF1C20FFF731FE0028F9
S1132C0008BFB0BD0025011D05600446084600F05C
S1132C10A5F820462576B0BDF0B503AF2DE9000731
S1132C20E0B38846B1F1807F48D2814600F10C0AB6
S1132C3000F02EFFD9F80000D9F8105040EA08003F
S1132C405545C9F800001DD0002409E036B141F013
S1132C500071DB0148BF144301F06EFB55450DD0F4
S1132C602846D5E90035D9F8001023F07F425E01EB
S1132C7001EA0206EAD59642E9D0EFE7D9F8000066
S1132C80E14301E04FF0FF310840C9F8000000F0D3
S1132C905FFFD9F80000BDE80007F0BD4CF220004A
S1132CA04BF678024CF2B333C0F20000C0F20002DB
S1132CB0C0F2000340F23221FFF730FC4CF2200056
S1132CC04BF678024BF69043C0F20000C0F20002CB
S1132CD0C0F2000340F23321FFF720FCB0B502AF8D
S1132CE058B3044600F0D4FE606858B104F10C05F2
S1132CF02069A84211D04FF0007101F01DFB6068FB
S1132D000028F5D100F024FF207E002818BFB0BDB4
S1132D102046BDE8B040FFF7C5BE4CF220004CF29F
S1132D2052024BF6C443C0F20000C0F20002C0F2EB
S1132D30000340F29A21FFF7F1FB4CF220004CF221
S1132D4052024CF66203C0F20000C0F20002C0F26C
S1132D50000340F28E21FFF7E1FBD4D44FF0FF31A2
S1132D60024642F8081F0021C0E90322C0E900120C
S1132D707047D4D4002101617047D4D442684A60BA
S1132D8093688B605960916008610168013101604A
S1132D907047D4D480B56F46D1F800C01CF101024D
S1132DA008D000F1080200BF9646526813686345D4
S1132DB0FAD903E0D0F810E0DEF804204A6091600C
S1132DC0C1F808E0CEF8041008610168013101601F
S1132DD080BDD4D4D0E901230169936042685A606C
S1132DE04A68824201D182684A600022026108680E
S1132DF0013808607047D4D4F0B503AF4DF804BD72
S1132E0000284DD00446C06BD0B30E46216CA0FB05
S1132E100101A9BBFDF7FEFC2068D4E90F120025CF
S1132E2002FB0103013901FB0201A563C4E90103AB
S1132E30FF20E16084F8440084F8450004F11000A8
S1132E405EB1FFF78BFF04F12400FFF787FFFDF766
S1132E500FFD01205DF804BBF0BD01680029F6D028
S1132E6001F0E8F90028F2D04EF60450CEF200004A
S1132E704FF080510160BFF34F8FBFF36F8FE6E7D0
S1132E804CF267404CF6AE324CF67413C0F20000BC
S1132E90C0F20002C0F200034FF4B671FFF73EFB2C
S1132EA04CF267404CF6AE324CF6DD03C0F2000043
S1132EB0C0F20002C0F2000340F23711FFF72EFB0C
S1132EC0D0B502AF82B05BB3D0B11C4601B9BAB978
S1132ED001B1AAB148230193019B482B30D1019B36
S1132EE0012384F84630002908BF2246C4E90F01B3
S1132EF0204601212260FFF77FFF204602B0D0BDAB
S1132F004CF267404CF264024CF2C563C0F200001C
S1132F10C0F20002C0F200034FF4D871FFF7FEFACA
S1132F204CF267404CF264024BF69823C0F2000066
S1132F30C0F20002C0F200034FF4C271FFF7EEFAD0
S1132F404CF267404CF264024BF66D73C0F2000021
S1132F50C0F20002C0F200034FF4CB71FFF7DEFAB7
S1132F60B0B502AF82B0C8B10D46814216D814463E
S1132F7022B348210191019948292FD101990121B6
S1132F8084F846100021C4E90F0120460121246081
S1132F90FFF732FF2046A56302B0B0BD4CF2674094
S1132FA04CF2BF324BF6A623C0F20000C0F200027E
S1132FB0C0F200034FF45E71FFF7B0FA4CF26740C1
S1132FC04CF264024BF69823C0F20000C0F20002F7
S1132FD0C0F200034FF4C271FFF7A0FA4CF267404D
S1132FE04CF264024BF66D73C0F20000C0F20002B2
S1132FF0C0F200034FF4CB71FFF790FAF0B503AFC2
S11330002DE9000F85B00028049200F0C8801E4608
S11330101546044619B9206C002840F0F080022EB1
S113302003D1E06B012840F0DA80019101F0A6FAA7
S113303010B9002D40F0C380FDF7ECFBA06B022E0D
S113304000965BD0E16B884258D304F1100601204E
S113305002AD4FF0000B0DF1100A0CE0204600F019
S1133060DFF800F075FDFDF7D5FBA06BE16B88423E
S11330704FF0000042D3049900295ED0C00702D06B
S1133080284601F009FAFDF7F3FB00F001FDFDF716
S1133090C1FB94F84400FF2808BF84F844B094F8B6
S11330A04500FF2808BF84F845B0FDF7E1FB28463A
S11330B0514601F0FFF9002842D1FDF7ABFBD4F8EB
S11330C03880D4F83C90FDF7D3FBC845C6D10499A9
S11330D0304601F04FF8204600F0A2F800F038FD29
S11330E00028C0D14EF60450CEF200004FF08051BB
S11330F00160BFF34F8FBFF36F8FB4E7A56B226CF2
S113310092B3009E1EB3E068019908F025F8E168C7
S1133110206C2268091A9142E16003D2A1684042FE
S11331200844E060B01EB0FA80F040092946002D42
S113313018BF012108402D1A16E0FDF799FB04E0A1
S1133140204600F06DF800F003FD002023E06068E5
S1133150019908F001F8D4E90101226C1044884275
S1133160606001D32068606054F8240F691C6161B9
S113317070B1204601F05EF850B14EF60450CEF224
S113318000004FF080510160BFF34F8FBFF36F8F8A
S1133190FDF76EFB012005B0BDE8000FF0BD4CF259
S11331A067404BF68B024CF6DD03C0F20000C0F220
S11331B00002C0F2000340F2B631FFF7AFF94CF25F
S11331C067404BF68B024BF69D03C0F20000C0F241
S11331D00002C0F2000340F2BB31FFF79FF94CF24A
S11331E067404BF68B024BF6AE23C0F20000C0F2F0
S11331F00002C0F200034FF46E71FFF78FF94CF236
S113320067404BF68B024CF65163C0F20000C0F2EB
S11332100002C0F2000340F2B731FFF77FF9D4D4C3
S1133220F0B503AF4DF8048D0446FDF7F3FA94F9B5
S11332304560012E0FDB04F1240500BF286850B15E
S1133240284600F0F7FF002818BF01F089F970B292
S1133250013E0128F2DC4FF0FF0884F84580FDF7B9
S113326007FBFDF7D7FA94F94460012E0FDB04F154
S1133270100500BF286850B1284600F0DBFF002885
S113328018BF01F06DF970B2013E0128F2DC84F838
S113329044805DF8048BBDE8F040FDF7E9BAD4D46E
S11332A0F0B503AF2DE9000F85B00028049200F0BB
S11332B0A48015468946044619B9206C002840F0BC
S11332C0BC8001F05BF910B9002D40F0A680FDF739
S11332D0A1FAD4F838B0BBF1000F29D0226C52B156
S11332E0D4E902011144E160814224BF2168E16014
S11332F0484607F031FF54F8100FABF10101A16209
S113330070B1204600F096FF50B14EF60450CEF254
S113331000004FF080510160BFF34F8FBFF36F8FF8
S11333200124FDF7A5FA204605B0BDE8000FF0BD65
S113333004F124000190012002AE4FF0000A0DF1C7
S113334010082BE0FDF794FA00F0A2FBFDF762FAF7
S113335094F84400FF2808BF84F844A094F845007A
S1133360FF2808BF84F845A0FDF782FA304641469D
S113337001F0A0F8D0B12046FFF752FF00F0E8FBBF
S1133380FDF748FAA56BFDF773FAA5B3FDF742FA0A
S1133390D4F838B00020BBF1000F9FD1049941B399
S11333A0C007CFD0304601F077F8CBE7FDF732FA0B
S11333B0A56BFDF75DFA2DB12046FFF731FF00F054
S11333C0C7FBE3E70499019800F0D4FE2046FFF719
S11333D027FF00F0BDFB0028D8D14EF60450CEF2F2
S11333E000004FF080510160BFF34F8FBFF36F8F28
S11333F0CCE7002495E7002495E74CF267404CF2B3
S1133400E3324BF61A23C0F20000C0F20002C0F20D
S1133410000340F2E951FFF781F84CF267404CF2A7
S1133420E3324BF69D03C0F20000C0F20002C0F28A
S1133430000340F2F251FFF771F84CF267404CF28E
S1133440E3324CF2D063C0F20000C0F20002C0F2DA
S1133450000340F2ED51FFF761F8D4D4F0B503AFA7
S11334602DE9000F83B00028029100F091800446FA
S1133470006C002840F09C800D4601F07FF810B9E4
S1133480002D40F0A580FDF7C5F9A16BD9B154F822
S1133490100F0139A16270B1204600F0CBFE50B18B
S11334A04EF60450CEF200004FF080510160BFF39D
S11334B04F8FBFF36F8F0124FDF7DAF9204603B075
S11334C0BDE8000FF0BD04F1240801206E464FF062
S11334D000090DF1080B29E0FDF7CAF900F0D8FA4C
S11334E0FDF798F994F84400FF2808BF84F8449045
S11334F094F84500FF2808BF84F84590FDF7B8F913
S11335003046594600F0D6FFC0B12046FFF788FE8A
S113351000F01EFBFDF77EF9A56BFDF7A9F9ADB32D
S1133520FDF778F9A16B00200029B0D1029959B3B5
S1133530C007D1D0304600F0AFFFCDE7FDF76AF900
S1133540D4F838A0FDF794F9BAF1000F05D020465D
S1133550FFF766FE00F0FCFAE2E70299404600F04D
S113356009FE2046FFF75CFE00F0F2FA0028D7D1EE
S11335704EF60450CEF200004FF080510160BFF3CC
S11335804F8FBFF36F8FCBE7002495E7002495E7B7
S11335904CF267404BF688724BF61A23C0F20000D7
S11335A0C0F20002C0F2000340F28261FEF7B6FFEF
S11335B04CF267404BF688724CF60B43C0F20000A5
S11335C0C0F20002C0F2000340F28661FEF7A6FFDB
S11335D04CF267404BF688724BF69D03C0F2000034
S11335E0C0F20002C0F2000340F28B61FEF796FFC6
S11335F0D0B502AF38B10446FDF70CF9A46BFDF762
S113360037F92046D0BD4CF267404CF292424CF65A
S11336102F23C0F20000C0F20002C0F2000340F603
S11336209B01FEF77BFFD4D4C0B143F2DC6C0021D4
S1133630C1F6FE7C0CEBC1035A68824203D001310F
S11336400A29F7D103E000224CF831205A6090F89F
S11336504610002918BF7047FFF724BA80B56F469B
S11336604CF267404CF229724CF6DD03C0F20000C4
S1133670C0F20002C0F2000340F6D401FEF74EFF90
S1133680B0B502AF28B3002908BFB0BD43F2DC6E69
S11336904FF0000CC1F6FE7E0022002303E000BFC1
S11336A00832502A10D00EEB02046568854207D018
S11336B0002BF5D12368002B18BF64462346EFE79F
S11336C02346C3E90010B0BD002B18BFC3E90010A6
S11336D0B0BD4CF267404BF232524CF62F23C0F28D
S11336E00000C0F20002C0F2000340F6C931FEF748
S11336F015FFD4D4F0B503AF4DF804BD15460E46FE
S11337000446FDF787F894F84400FF2804BF00201E
S113371084F8440094F84500FF2804BF002084F88E
S11337204500FDF7A5F8A06B28B904F12400314643
S11337302A4600F041FD20465DF804BBBDE8F04098
S1133740FFF76EBDF0B503AF2DE9000F81B0FC6843
S1133750002C4CD03D69002D59D08146602000904A
S11337600098602863D100980E46D7F808B0284620
S113377060219846924607F0EBFC02202C6385F802
S11337805D007EB105F13300711E0F2211F8013F77
S113379000F8013F1BB1002AA2F10102F6D100207A
S11337A085F84300BBF1050F51D204EB8A000438BD
S11337B020F00704281DC5F82CB0FFF7DBFA05F14B
S11337C01800FFF7D7FACBF10500296BA861204652
S11337D04A4643462D616D62FCF7C2FF28602846C5
S11337E000F046F8284601B0BDE8000FF0BD4CF2E9
S11337F092604CF2CC524BF2CA63C0F20000C0F2A9
S11338000002C0F2000340F2F141FEF787FE4CF2E1
S113381092604CF2CC524BF68853C0F20000C0F2D6
S11338200002C0F2000340F2F241FEF777FE4CF2D0
S113383092604CF2CC524CF6BF63C0F20000C0F26E
S11338400002C0F2000340F2FA41FEF767FE4CF2B8
S113385092604BF6A3524BF69633C0F20000C0F2CE
S11338600002C0F2000340F26471FEF757FED4D4A4
S1133870F0B503AF2DE9000F81B00446FCF7CAFF91
S113388043F25070C1F6FE70016843F22C7B0131A3
S11338900160C1F6FE7BDBF8001043F2347A43F298
S11338A05C76C1F6FE7AC1F6FE7661B1DAF8000004
S11338B0002841D1DBF80000E16AC06A884298BF61
S11338C0CBF8004038E0CBF800400068012833D141
S11338D0002500BF7019FFF741FA1435642DF9D1A2
S11338E043F60808C1F6FE784046FFF737FA43F678
S11338F01C09C1F6FE794846FFF730FA43F2DC7042
S1133900C1F6FE70FFF72AFA43F23870C1F6FE7072
S1133910FFF724FA43F2C470C1F6FE70FFF71EFAF3
S113392043F2FC70C1F6FE70C0F8008043F600005C
S1133930C1F6FE70C0F8009043F23070C1F6FE701C
S113394001680131016043F2C071C1F6FE71E06AA1
S11339500A68904288BF086000EB800006EB800094
S11339604068221DA0608168E1604A608260E06A6C
S113397000EB800006EB8001616156F820100131F4
S113398046F82010FCF774FFDAF8000080B1DBF889
S11339900000E16AC06A88420AD24EF60450CEF2B0
S11339A000004FF080510160BFF34F8FBFF36F8F62
S11339B001B0BDE8000FF0BDF0B503AF2DE9000F75
S11339C081B081469000984692460C46FEF748FF27
S11339D0002846D005466020FEF742FF00283DD06F
S11339E0D7F808B06021064607F0B2FB35637CB116
S11339F006F13300611E0F2211F8013F00F8013F68
S1133A001BB1002AA2F10102F6D1002086F843007E
S1133A10BBF1050F2BD205EB8A00043820F0070414
S1133A20FD68301DC6F82CB0FFF7A4F906F11800A4
S1133A30FFF7A0F9CBF10500316BB06120464A468F
S1133A40434636617662FCF78BFE30603046002DCB
S1133A5018BF2E60FFF70CFF012004E02846FFF793
S1133A6021F84FF0FF3001B0BDE8000FF0BD4CF27B
S1133A7092604BF6A3524BF69633C0F20000C0F2AC
S1133A800002C0F2000340F26471FEF747FDD4D493
S1133A9043F25470C1F6FE70016801310160704751
S1133AA0F0B503AF2DE900070E4643F25871C1F695
S1133AB0FE71D1F800A043F2FC71C1F6FE71D1F899
S1133AC0008043F6000143F22C75C1F6FE71C1F685
S1133AD0FE75D1F8009029680446081DFFF77AF9AD
S1133AE0601C18D1BEB143F2C470C1F6FE70D0E9B7
S1133AF000122B6801319A6093682E68F3602E6877
S1133B0004365E602B68043393602A680160506158
S1133B10BDE80007F0BD286814EB0A044460286877
S1133B2000F1040106D34846BDE80007BDE8F040B3
S1133B30FFF730B94046FFF72DF943F2F070C1F6B4
S1133B40FE7001688C4238BF0460BDE80007F0BD18
S1133B50F0B503AF2DE90007FCF75CFE43F25470A7
S1133B60C1F6FE700168002900F0B18001680139D6
S1133B700160006830B10024FCF77AFE2046BDE8FD
S1133B800007F0BD43F25070C1F6FE7000680028D3
S1133B90F1D043F2DC70C1F6FE70016843F2D87ACA
S1133BA043F22C780029C1F6FE7AC1F6FE7867D07C
S1133BB043F2C07E43F25C730021C1F6FE7EC1F67F
S1133BC0FE734FF0010C29E061612A68013A2A6012
S1133BD0E56ADEF80020954205EB850288BFCEF841
S1133BE0005003EB82025268A2609568E5606E6043
S1133BF09660E26A02EB820203EB8205656153F888
S1133C002250013543F82250E26AD8F80040E46AB1
S1133C10A24288BFCAF800C00268FAB1C668F46854
S1133C20D4E90752A66AAA60E5695560726804F18E
S1133C301805AA4201D1226A7260A1623268013A6F
S1133C403260D4E9022665699660A26872606A6887
S1133C50261DB242B8D1E2686A60B5E743F2FC704F
S1133C60C1F6FE700168096819B10068C06800688F
S1133C7001E04FF0FF3043F2F071C1F6FE710860CD
S1133C8043F2F879C1F6FE79D9F800605EB10124F7
S1133C9000F08CF9002818BFCAF80040013EF7D1A3
S1133CA00020C9F80000DAF8000000283FF463AFF0
S1133CB0D8F800004EF60450CEF200004FF08051C8
S1133CC00160BFF34F8F0124BFF36F8F54E74CF2B1
S1133CD092604BF62A524CF64A23C0F20000C0F21E
S1133CE00002C0F2000340F68B71FEF717FCD4D437
S1133CF0F0B503AF2DE9000B00283FD0044643F292
S1133D005470C1F6FE700168013101600068012839
S1133D1042D143F25870C1F6FE70056843F2FC705C
S1133D20C1F6FE70D0F8008043F6000043F22C7612
S1133D30C1F6FE70C1F6FE76D0F80090306804300B
S1133D40FFF748F8306864194460306800F10401F2
S1133D5003D34846FFF71EF80AE04046FFF71AF877
S1133D6043F2F070C1F6FE7001688C4238BF046003
S1133D70FFF7EEFE10B1BDE8000BF0BD4EF60450A7
S1133D80CEF200004FF080510160BFF34F8FBFF3BC
S1133D906F8FBDE8000BF0BD4CF292604CF6E5026B
S1133DA04CF23713C0F20000C0F20002C0F200036C
S1133DB040F68E11FEF7B2FB80B56F4643F25470A5
S1133DC0C1F6FE70006830B143F2D870C1F6FE70DF
S1133DD00121016080BD43F2D870C1F6FE7000215C
S1133DE043F2C07C0160C1F6FE7CDCF8001043F2B3
S1133DF05C7201EB8100C1F6FE7252F820304BB9BF
S1133E0002EB8000A0F11403E9B153F8140901395D
S1133E100028F9D001EB810002EB800E734653F8C1
S1133E20042F5268181D82421A6002D1DEF80C2059
S1133E301A60D06843F22C72C1F6FE721060CCF89E
S1133E400010106880BD4CF292604BF2FF524CF6A9
S1133E503263C0F20000C0F20002C0F2000341F27B
S1133E60FA31FEF75BFBD4D4B0B502AF8AB044F2AA
S1133E704940C4F24C500024069005A804A903AAA2
S1133E808DF81C40CDE90444FCF7A2FBDDE90320D6
S1133E90059DCDE9004044F2C170C0F2000006A9BE
S1133EA000230295FFF74EFC43F2F470C1F6FE7056
S1133EB0056065B300F09EFC012811D0013026D1C5
S1133EC04CF292604CF636224CF25F23C0F20000B2
S1133ED0C0F20002C0F2000340F6A961FEF71EFB27
S1133EE043F2F071C1F6FE714FF0FF32012080F30E
S1133EF010880A6043F23471C1F6FE71086043F21F
S1133F005870C1F6FE7000210160FCF73FFC4DF2D1
S1133F102810C0F2000000680AB0B0BDF0B503AFCD
S1133F204DF8048D43F24C75C1F6FE752868C8B38C
S1133F3043F2387843F25076C1F6FE78C1F6FE7645
S1133F4008E000BF206BFEF7ADFD2046FEF7AAFD9A
S1133F50286838B3FCF75EFCD8F80C00C468201D50
S1133F60FEF738FF3068013830602868013828606F
S1133F70FCF77EFC94F85D000228E9D00128E4D027
S1133F800028DFD04CF292604BF629424CF2E05309
S1133F90C0F20000C0F20002C0F2000341F62E118C
S1133FA0FEF7BCFA5DF8048BF0BDD4D4F0B503AFD2
S1133FB02DE9000F81B043F25470C1F6FE70006821
S1133FC040B143F2F870C1F6FE700168013101603E
S1133FD00020B4E043F25870C1F6FE70016843F269
S1133FE0F07C11F1010BC1F6FE7CC0F800B022D3C5
S1133FF043F2FC70C1F6FE7001680968002940F0C4
S1134000A28043F60003C1F6FE7301681E680660D1
S1134010196043F60401C1F6FE710B6801330B60AD
S11340200168096819B10068C068006801E04FF0D0
S1134030FF30CCF80000DCF80000834501D20020FA
S113404075E043F2FC7AC1F6FE7ADAF800004FF02C
S113405000090068002862D043F2C07E43F25C7419
S113406043F22C78C1F6FE7EC1F6FE74C1F6FE78EA
S113407000202BE0C6F828900A68013A0A60F16A29
S1134080DEF80020914288BFCEF8001001EB8101D8
S113409004EB81014968B1608A68F26055608D6003
S11340A0F16A01EB810104EB8102726154F8212071
S11340B0013244F82120F16AD8F80020D26ADAF8F3
S11340C00030914288BF0120196861B3DAF800100A
S11340D0C968CE68354655F8041F8B4525D3D6E903
S11340E0023271699A60B36853604A68AA4201D186
S11340F0F2684A60C6F814900A68013A0A60B16A24
S11341000029BCD0D6E907239360F2695A604A6853
S113411006F118039A42ADD1326A4A60AAE74FF019
S1134120FF31002001E04FF0FF31CCF8001043F2E2
S1134130D871C1F6FE710968002918BF012001B0C9
S1134140BDE8000FF0BD4CF292604CF2F1324BF23C
S11341508953C0F20000C0F20002C0F2000341F231
S11341605F21FEF7DBF9D4D443F25870C1F6FE7038
S113417000687047D0B502AF70B10C4643F22C71A1
S1134180C1F6FE7109681831FEF704FE20460121CC
S1134190BDE8D040FFF784BC4CF292604CF6981214
S11341A04CF25213C0F20000C0F20002C0F200034D
S11341B04FF4A451FEF7B2F9D0B502AF50B343F2B5
S11341C02C7CC1F6FE7C0346D0F804E0DCF8000049
S11341D0002AC0F81CE0DEF80800DCF80040206289
S11341E0DCF8004004F118044460DCF8000000F13D
S11341F01800CEF80800DCF800008362186818BFC5
S11342004FF0FF31441C084611461C60BDE8D04005
S1134210FFF746BC4CF292604BF639524CF2521303
S1134220C0F20000C0F20002C0F2000341F2BE413D
S1134230FEF774F9C068C06800286AD0D0E9071393
S1134240826A8B60C16900F1180C59605368634538
S113425001D1036A5360002383621368013B136036
S113426043F25472C1F6FE7212686AB143F2DC7210
S1134270C1F6FE725368C36199680162C1F804C053
S1134280C3F808C082622FE0D0E9021342698B6050
S1134290816859605368011D8B4201D1C368536022
S11342A000234361136843F2C07C013B1360C1F6F1
S11342B0FE7CC26ADCF800309A4288BFCCF8002049
S11342C043F25C7C02EB8202C1F6FE7C0CEB8202C0
S11342D0526882609368C36059609160C16A01EB5F
S11342E081010CEB8102426111680131116043F2DA
S11342F02C71C1F6FE71C06A0968C96A884291BF0F
S1134300002043F2D871C1F6FE71012088BF086015
S1134310704780B56F464CF292604BF659524BF69B
S11343202623C0F20000C0F20002C0F2000341F2F2
S1134330F541FEF7F3F8D4D480B56F4643F25472D6
S1134340C1F6FE721268002A5FD0C26841F00041D3
S1134350002A016069D0D0E901CE0369CCF808E0F5
S11343604168CEF804105968814201D181685960CE
S11343704FF0000CC0F810C0186801381860D2E97A
S1134380020153698160906848605968101D814238
S113439001D1D1685960C2F814C0196843F2C07CD5
S11343A001391960C1F6FE7CD16ADCF8003099420B
S11343B088BFCCF8001043F25C7C01EB8101C1F6AC
S11343C0FE7C0CEB8101496891608B68D360586076
S11343D08860D06A00EB80000CEB800151615CF8CE
S11343E0201001314CF8201043F22C71C1F6FE71FB
S11343F0D06A0968C96A884298BF80BD43F2D87000
S1134400C1F6FE700121016080BD4CF292604BF652
S1134410FB224CF62443C0F20000C0F20002C0F2BA
S1134420000341F24351FEF779F84CF292604BF6E7
S1134430FB224BF62623C0F20000C0F20002C0F2B9
S1134440000341F24E51FEF769F8D4D4D0B502AF5F
S113445090B10446FCF7DEF943F60400C1F6FE70A1
S11344600068206043F25870C1F6FE700068606016
S1134470BDE8D040FCF7FCB94CF292604BF69C725C
S11344804BF61D33C0F20000C0F20002C0F200037C
S113449041F28651FEF742F843F60401C1F6FE717B
S11344A00968016043F25871C1F6FE710968416000
S11344B07047D4D4F0B503AF4DF804BD78B30D46BE
S11344C0E9B30446FCF7A6F943F2587EC1F6FE7E32
S11344D0DEF8003029684A1C16D043F6040CC1F6F5
S11344E0FE7CD4E90002DCF80060864201D09342ED
S11344F00CD29A1A914209D9881A2860DCF8000073
S11345002060DEF800006060002402E00020012446
S11345102860FCF7ADF920465DF804BBF0BD4CF211
S113452092604CF236724BF61D33C0F20000C0F2BA
S11345300002C0F2000341F2A551FDF7EFFF4CF277
S113454092604CF236724BF6F763C0F20000C0F290
S11345500002C0F2000341F2A651FDF7DFFFD4D4FC
S113456043F2D870C1F6FE70012101607047D4D4C3
S113457043F22C70C1F6FE700068704743F2347049
S1134580C1F6FE700068002804BF0120704743F2A2
S11345905470C1F6FE700068B0FA80F04009400023
S11345A07047D4D4F0B503AF4DF804BD002846D10C
S11345B043F25470C1F6FE700C4601681546013191
S11345C00160FCF727F943F22C76C1F6FE763068D9
S11345D0806DC0B1FCF74CF9FFF7BAFAFCF71AF991
S11345E03068856D2DB131680020002C08BF681E2D
S11345F088653068002180F85C10FCF739F928469A
S11346005DF804BBF0BD3068012180F85C10FCF754
S11346102FF9002DE0D028460121FFF741FAFFF7DA
S113462097FA0028DAD14EF60450CEF200004FF08B
S113463080510160BFF34F8FBFF36F8FCEE74CF211
S113464092604CF6A7624BF62733C0F20000C0F22A
S11346500002C0F2000341F6C751FDF75FFFD4D456
S1134660F0B503AF4DF804BD002879D0002940F01F
S1134670878016460546FCF75DF9EFF3118010219B
S113468081F31188022295F85C1085F85C20AA6DEC
S1134690012902F10102AA655DD1A96A002940F04D
S11346A07F8043F25471C1F6FE71096869B143F227
S11346B0DC71C1F6FE714A6805F11804EA61936879
S11346C02B625C609460A9622FE0D5E902136A69E9
S11346D08B60A96859605368291D8B4201D1EB682E
S11346E0536000236B61136843F2C07C013B136089
S11346F0C1F6FE7CEA6ADCF800309A4288BFCCF846
S1134700002043F25C7C02EB8202C1F6FE7C0CEBDF
S113471082025268AA609368EB6059609160E96A0A
S113472001EB81010CEB810169610A6801320A60C5
S113473043F22C72C1F6FE72E96A1268D26A91429F
S113474009D9002E1CBF0121316043F2D871C1F692
S1134750FE7101220A6080F311885DF804BBF0BD8C
S11347604CF292604CF25E124CF20443C0F2000030
S1134770C0F20002C0F200034FF4FE51FDF7CEFE7A
S11347804CF292604CF25E124BF67253C0F200008F
S1134790C0F20002C0F2000341F6C171FDF7BEFE93
S11347A04CF292604CF25E124CF64F43C0F20000A1
S11347B0C0F20002C0F2000341F6EA71FDF7AEFE5A
S11347C080B56F4643F25C744EF60455C1F6FE7430
S11347D0CEF200054FF08056FFF7A0FB20680228B8
S11347E022BF2E60BFF34F8FBFF36F8FFCF764F8C7
S11347F0F2E7D4D480B56F4686B000F03DF843F6B6
S11348003000C1F6FE70006828B30020CDE9040032
S113481005A804A903AAFBF7E9FEDDE903200321A7
S1134820DDF814C0CDE9001044F6FD004CF6C131AA
S1134830C0F20000C0F200010023CDF808C0FEF76A
S113484081FF43F63401C1F6FE71002808601EBFE3
S1134850012006B080BD4BF2E7604CF68D424BF66A
S11348600573C0F20000C0F20002C0F200034FF46E
S1134870A371FDF753FED4D4F0B503AF4DF804BDD6
S113488082B0FBF7C7FF43F63006C1F6FE76306808
S113489068BB43F64404C1F6FE742046FEF75EFA94
S11348A043F65805C1F6FE752846FEF757FA43F657
S11348B03800C1F6FE70046043F63C00C1F6FE7099
S11348C043F6B40243F66C0305600025C1F6FE729C
S11348D0C1F6FE730A200C210095FEF7F1FA306050
S11348E028B14BF62C01C0F20001FEF7C9FE02B05C
S11348F05DF804BBBDE8F040FBF7BABF80B56F4676
S113490086B043F6380A43F6300BC1F6FE7A0DF151
S11349100C09C1F6FE7B00BFDAF8000005681DB182
S1134920C068046801E000BF0024FFF7B1F84846FE
S113493000F016F9039919B1FFF70AF95DE000BF19
S11349408046A5B1444512D8FFF702F9DAF8000011
S1134950C068C5682E1D3046FEF73CFA95F8240061
S1134960410707D400F0FA0085F8240042E0BDB105
S113497000221EE0019607E0A8EB040181422FD338
S1134980296A284688473446A8692D610619464590
S11349906E60F1D9A04528D2A6425046F0D225E057
S11349A043F63C00C1F6FE7000680068B0FA80F07F
S11349B04209DBF80000A4EB0801FEF79BFEFFF7B9
S11349C0C7F80DF10808D0B94EF60450CEF2000035
S11349D04FF080510160BFF34F8FBFF36F8F0EE034
S11349E043F63C00C1F6FE7000E0504600680199B1
S11349F0FEF7D0F9296A284688470DF108080021F6
S1134A00DBF80000CDE90411039106E0524610687A
S1134A102146FEF7BFF9DBF8000049460022FEF705
S1134A203FFC00283FF478AF03980028F3D4059E98
S1134A30706910B1301DFEF7CDF9404600F090F8D2
S1134A40039901390829E6D80546DFE801F0050590
S1134A50402860050540280096F82410049AB0699F
S1134A6041F0010386F824308318344644F8043FA7
S1134A70AB42366105D99542C8D29342524607D219
S1134A80C5E7AA1A824243F63C02C1F6FE72BED3BF
S1134A904A0723D401F0FA0086F824004BE096F884
S1134AA0240040F00101049886F824100028B06125
S1134AB045D02844314641F8040FA84243F63C004F
S1134AC0C1F6FE70366188BF50460068A1E796F8CB
S1134AD0240000F0FE0086F824009CE704990144B9
S1134AE008E000BF691A814219D3316A3046884709
S1134AF0B069414601EB0008A845C6F80480366158
S1134B00F0D98D4210D288455046EED20DE096F889
S1134B1024008107DDD43046FDF7C4FF7BE743F66C
S1134B203C00C1F6FE7000E0504600682146FEF7E6
S1134B3031F90DF10808316A304688476BE74BF2CA
S1134B40E7604CF65E324CF6D863C0F20000C0F267
S1134B500002C0F200034FF48261FDF7DFFCD4D4FD
S1134B60F0B503AF2DE9000F81B00446FFF7FCFA5E
S1134B7043F64002C1F6FE7211688246884248D26A
S1134B8043F63805C1F6FE75286843F63C0B016808
S1134B90C1F6FE7B0094B1B9DBF80010009C43F62B
S1134BA04002CBF800000120C1F6FE72296031E01A
S1134BB000F0FA0086F82400316A304688472868F5
S1134BC001680029E8D0C068C668D0F80080341DA8
S1134BD02046FEF7FFF896F824004107E8D5B069AF
S1134BE000EB0809C6F8049010EB080036610AD2FD
S1134BF0316A30468847B06919EB00018144C6F830
S1134C0004903661F4D3DBF800002146FEF7C2F8C5
S1134C10D2E7002020605046C2F800A001B0BDE8F1
S1134C20000FF0BDF0B503AF2DE9000743F65C3883
S1134C30C1F6FE78D8F8000018B10120BDE80007DD
S1134C40F0BD43F66032C1F6FE720A200A21FEF777
S1134C5087F9C8F8000080B34BF24651C0F2000156
S1134C60FEF70EFD43F6A839C1F6FE794846FEF775
S1134C7075F843F62C144FF0000AC1F6FE740026B2
S1134C80A5192846C5F824A0FEF774F84846294615
S1134C90ED60FEF77FF83836B6F50C7FF0D143F6B9
S1134CA0BC31D8F80000C1F6FE710A220A6000285F
S1134CB018BF0120BDE80007F0BD4CF212604CF2B1
S1134CC0A9424CF69823C0F20000C0F20002C0F2E0
S1134CD000037421FDF722FCF0B503AF4DF8048DF9
S1134CE04228054698BF422510F1020F38BF02350D
S1134CF015F0030209D0053A954203D900205DF866
S1134D00048BF0BD25F00302151D10F1030F4FF0C5
S1134D10000098BF15F10B0F02D95DF8048BF0BDAC
S1134D2015F10A04F9D443F65C32C1F6FE72126836
S1134D30002AF2D01046FEF791FB0128DED1FBF7E2
S1134D4069FD43F6A838C1F6FE78D8F80C00C068AF
S1134D500646FEF73FF8FBF78BFD43F6BC31C1F680
S1134D60FE71D8F800000A68824288BF0860716A40
S1134D70C9B98DB12046FDF773FD01463046716215
S1134D8071B10860416A00220A31C0E90915C0E91D
S1134D900B225DF8048BF0BD30465DF8048BF0BD4A
S1134DA000F012F8AAE74CF212604CF212424BF6F1
S1134DB0A733C0F20000C0F20002C0F200034FF4B7
S1134DC0A371FDF7ABFBD4D4D0B502AF0446406A5F
S1134DD010B10A38FDF766FE0020C4E90900FBF7AC
S1134DE019FD206943F6A831C1F6FE71884214D03A
S1134DF043F6A830C1F6FE702146FDF7BFFFFBF76E
S1134E0037FD43F65C30C1F6FE70006800210022D5
S1134E100023BDE8D040FEF7F1B8BDE8D040FBF771
S1134E2027BDD4D4F0B503AF2DE9000F87B0456A90
S1134E30A97BEA7B41EA0221B1F5807F40F0C4807E
S1134E40297C6A7C41EA0221082940F0BD80A97CC2
S1134E50062940F0B980E97C042940F0B580294650
S1134E6011F826CF046B11F80A2D48788B78CE7888
S1134E7042EA002043EA062240EA024A43F6C032EC
S1134E80C1F6FE72107891F80BB091F80D8091F88C
S1134E900C900128CDF818A013D143F6C43040F289
S1134EA03401C1F6FE70C1F6FE716646FFF702FBDF
S1134EB043F6C032C1F6FE72B446012804BF002096
S1134EC010702E4616F8160FC0077DD19AFA8AF094
S1134ED0B0F1FE4F4FF0000077DA002C75D0206857
S1134EE082451DD1107800286ED101201070204613
S1134EF0514600F0A9F8FFF737F943F6CC31C1F673
S1134F00FE71086043F6C430C1F6FE70FFF79EFAE6
S1134F1040F23400C1F6FE7042F21071016053E0B9
S1134F2094F84010C9064FD5297D6A7D41EA0221D3
S1134F30B1F5007F43D0B1F5807F45D149EA08211E
S1134F404CEA0B2242EA0141814242D104F1380980
S1134F5048463146062204F03FFD00284FF0000089
S1134F6033D03046514622464FF0000800F0A4F9F1
S1134F700220687505F120003146062285F8148068
S1134F8006F0EAF84FEA1A2085F82700284600F8C8
S1134F9026AF4FEA1A61C1704FEA1A418170304658
S1134FA04946062206F0D8F820786178A278E3789A
S1134FB005F81C0FAA70EB706970022005E0284602
S1134FC02146524600F0F8F9002007B0BDE8000F72
S1134FD0F0BD8A45F8D1616880EA0A0001424FF0C9
S1134FE00000F2D1A04605F120044DF26E11ADF897
S1134FF014000490C0F200012046062204F0ECFCE8
S113500030B104A92046062204F0E6FC0028DBD1D6
S113501008F138003146062204F0DEFC0028D3D023
S11350200020019006A8A7F12E0101AA00F086F83D
S11350300128C9D101984045C6D106993046424657
S113504000F03AF9C0E7D4D4F0B503AF4DF804BD8D
S113505082B0054690F8400040075BD428680028D9
S113506058D02A200C460021FFF736FE002851D0E4
S11350702146044641610563806AE96E2928E1629C
S11350804CD9666A4DF23011C0F200013046262236
S113509006F062F8206B062200F13801B01D06F01C
S11350A05BF8206B062200F1380106F1160006F0C9
S11350B053F8206B427801788378C078727732464F
S11350C002F81C1F9370D070606906F8260F010E59
S11350D0F170010C000A70702A20B170A06201F016
S11350E0A5F950B1E86EA8B1C3682146012202B007
S11350F05DF804BBBDE8F040184702208DF80000BD
S113510068464FF0FF31019400F0C6FB10B9204609
S1135110FFF75AFE02B05DF804BBF0BD4BF213700A
S11351204CF2C3424CF6AE13C0F20000C0F20002CF
S1135130C0F2000340F25A51FDF7F0F9F0B503AFA5
S11351402DE9000B002900F087800546002800F0B7
S113515093809046002A00F09F800020C8F8000049
S11351602C688946204601F00BFE0646204601F0D5
S1135170C3FB68B1002E59D006F138014846062217
S113518005F0EAFFC8F800600120BDE8000BF0BD9F
S1135190204601F0A9FBA0B12046494601F0BAFC23
S11351A0002001F0B7FD002840D0014691F84000EE
S11351B0400719D5002001F0C3FD01460028F5D1B0
S11351C034E0B4F17F4F12D34DF26E11C0F20001FE
S11351D04846062205F0C0FF204601F013FE0028D1
S11351E018BFC8F80000CFE7C8F80010CCE728685B
S11351F001F008FE20B12C68C8F8000044B915E09D
S1135200402001F00DFFC8F8000078B184686CB14B
S113521043F6D0310020C1F6FE7100BF0A58A24205
S113522008D010306028F9D1002011E00220BDE838
S1135230000BF0BD0E18F07A48B1311D4846062225
S113524005F08AFFF068C8F80000012000E00220A1
S11352502C60BDE8000BF0BD4BF213704CF6FD6200
S11352604CF66E03C0F20000C0F20002C0F200036C
S113527040F27A31FDF752F94BF213704CF6FD62AD
S11352804BF2DC73C0F20000C0F20002C0F2000373
S113529040F27B31FDF742F94BF213704CF6FD629C
S11352A04CF6BE23C0F20000C0F20002C0F20003BC
S11352B04FF45F71FDF732F9F0B503AF2DE9000F3C
S11352C085B0054608461446894601F09BFD002832
S11352D06DD043F6D03B01944FF0FF300026FF24FD
S11352E0C1F6FE7B4FF0000ACDE90300029609E007
S11352F0002804A854D0C0F800A01036602E0AF18B
S1135300010A1ED075B10BEB060808F1040029460A
S1135310062204F061FB5BF806104945E8D028B981
S113532003A8E8E75BF80600484508D00BEB060045
S1135330817AE0B28142E0D202A80C46DBE7CDF8E4
S113534010A0DDE9030200280BD4002A0FD40BEBD4
S11353500213120100214BF80210C3E90111D960B4
S113536006E0D10F0298002A58BF104600E0012140
S113537002014BF8029065B10BEB0014201D294685
S1135380062205F0E9FE4FF4CB7060810198E060DD
S11353900DE000291EBF0BEB00100521418106E042
S11353A04FF4CB70A8F80A000198C8F80C0005B0B7
S11353B0BDE8000FF0BDD4D4F0B503AF4DF804BD83
S11353C082B0054615F8264F8C466978AB78ED789F
S11353D044EA012143EA0523DCF8005041EA034191
S11353E0A94214460ED043F6D0320021C1F6FE7213
S11353F05358A34203D010316029F9D107E0114476
S1135400C97A21B1163021466246FFF755FF43F6AB
S11354104C56C1F6FE76306820B300F021FE142805
S113542020D13068416A11F81A2F4B788D78C978E9
S113543042EA032245EA012142EA0141A14211D193
S113544001218DF80010019068460021002400F02D
S113545023FA012802D03068FFF7B6FC002034603C
S113546000F05CFF02B05DF804BBF0BD80B56F4690
S1135470416A006B0A7B4B7B42EA0322082A02D072
S1135480B2F5C16F26D111F81ACF4B788A78C97852
S11354904CEA032C42EA0121D0E900234CEA014101
S11354A04A401A4201D0002080BD43F6D03C00227D
S11354B0C1F6FE7C5CF802308B4203D01032602AC5
S11354C0F8D103E06244D27A002AECD1FFF7BCFDA4
S11354D0012080BD4BF213704CF233424BF26373E4
S11354E0C0F20000C0F20002C0F200034FF40371E6
S11354F0FDF714F8002808BF7047F0B503AF2DE995
S1135500000B43F6D03980460D460026C1F6FE79DD
S113551003E000BF1036602E0ED059F80600A842F2
S1135520F8D109EB0604201D4146062204F054FA82
S11355300028EFD19620A072BDE8000BBDE8F04032
S11355407047D4D4F0B503AF2DE9000B43F6D0393E
S11355504FF00008C1F6FE79002507E0B07A002874
S113556008BFC6F800801035602D15D009EB05067C
S1135570B07A0028F7D0F17A421E0029B27218BF1F
S11355800428EBD83468204601F03CFC0028E5D020
S11355902146FFF759FDE1E7FEF7E6FD43F6CC3679
S11355A0C1F6FE763168044639B1601A44F62161C9
S11355B0884202D2BDE8000BF0BD44F67410C1F677
S11355C0FE70056801E000BF2D6F65B195F84000DD
S11355D0C106F9D54007F7D429680029F4D0284634
S11355E0FFF732FDF0E73460BDE8000BF0BDD4D422
S11355F0D0B502AF044601F005FC002808BFD0BDB9
S11356002146BDE8D040FFF71FBDD4D4B0B502AFEA
S1135610A8B30446806A292841D9206B00284ED0BB
S1135620656A4DF23011C0F200012846262205F0C9
S113563093FD206B062200F13801A81D05F08CFDB6
S1135640206B062200F1380105F1160005F084FDF7
S1135650206B427801788378C0786A772A4602F80A
S11356601C1F9370D070606905F8260F010EE97055
S1135670010C000A68702A20A970A062B0BD4BF228
S113568013704CF2C3424BF6B853C0F20000C0F2A0
S11356900002C0F2000340F25951FCF73FFF4BF205
S11356A013704CF2C3424CF6AE13C0F20000C0F2C9
S11356B00002C0F2000340F25A51FCF72FFF4BF2F4
S11356C013704CF2C3424BF6B173C0F20000C0F247
S11356D00002C0F2000340F25B51FCF71FFFD4D478
S11356E080B56F46C0B143F6D03C4FF0000EC1F612
S11356F0FE7C002304E000BF1033602B08BF80BD94
S11357000CEB0302D1688142F6D14CF803E0C2E904
S113571001EEC2F80CE0EFE743F6D030C1F6FE70BC
S1135720602105F015FD80BD80B56F4643F630401D
S1135730C1F6FE704FF48E7105F00AFD80BDD4D41D
S1135740F0B503AF2DE9000F81B0816A29294BD947
S1135750456A95F8221008294FF000013FD105F160
S11357600E0200922A4612F81E8F2C4614F81A6F65
S113577092F8029092F803E0A37894F803C095F8A5
S11357801BB095F81FA084F8008084F8029084F878
S113579003E02C461670937082F803C0402204F88C
S11357A0181F85F8221085F81FB085F81BA0AA756C
S11357B0697529756170064600F052FC009902462D
S11357C0002000F0EBFFC04300BA010C000E607033
S11357D02170B16A2846012200F0F4FE0221084635
S11357E001B0BDE8000FF0BD4BF6D6504BF6F00209
S11357F04CF60F73C0F20000C0F20002C0F20003C6
S11358005821FCF78BFED4D443F65850C1F6FE70F1
S113581000687047D0B502AF044690F8400040F0ED
S1135820100084F840000020FAF740FE94F840008D
S1135830400748BFD0BD42F21070BDE8D04000F030
S1135840ADBDD4D4D0B502AF82B00446007F01947C
S113585000F0FE00207700208DF8000000F0E6FD47
S113586043F65050C1F6FE700068694600220023DA
S1135870FDF7C4FB217F012802D101F0FD0007E000
S113588041F0020043F65C51C1F6FE7101220A6048
S1135890207702B0D0BDD4D4F0B503AF4DF804BD29
S11358A0044644F61C10C1F6FE70027820780D46BA
S11358B072B1072812D10120012600F09BFD43F6A6
S11358C05050C1F6FE700068FDF792FE10B905E075
S11358D020B1002630465DF804BBF0BD00F0A6FD03
S11358E0421E43F65050C1F6FE70006818BF2A46A7
S11358F0214600235DF804BBBDE8F040FDF77EBB04
S1135900F0B503AF2DE9000784B043F66059C1F642
S1135910FE798846D7F808A00646002049461C466A
S11359201546FBF739F943F68851C1F6FE7148462E
S113593032464346CDE90054CDF808A001F04CF9B5
S113594004B0BDE80007BDE8F04000F001B8D4D4CD
S1135950B0B502AF84B001F0D1F900284BD000F00B
S1135960F1FD43F6446243F6FC530024C1F6FE7293
S1135970C1F6FE730F2008210094FDF7A1FA43F647
S11359805055C1F6FE75286090B34CF2BD61C0F26B
S11359900001FDF775FEFFF745F9012824D101F058
S11359A05DFB43F61C70C1F6FE70032143F6BC6533
S11359B0CDE9001045F619204BF6D131C1F6FE753C
S11359C0C0F20000C0F200014FF4207200230295DF
S11359D0FDF7B8FE044643F65850C1F6FE70046065
S11359E0002C18BF012403E02868FDF71DFE2C607D
S11359F0204604B0B0BD4BF681104CF271224CF637
S1135A00F003C0F20000C0F20002C0F2000340F252
S1135A10CF31FCF783FDD4D480B56F468CB040F60B
S1135A20B83000F0D1FC44F67810C1F6FE70056879
S1135A3043F6505643F65C58C1F6FE76C1F6FE783E
S1135A4005B34FF0000904AC4FF0010A287F8DF82C
S1135A50109000F0FE002877059500F0E7FC306810
S1135A60214600220023FDF7C9FA297F01280EBF31
S1135A7001F0FD0041F00200C8F800A028776D6A2B
S1135A80002DE3D14FF47A7000F072FC00204FF047
S1135A90000900F043FCFFF747FE44F61C10C1F672
S1135AA0FE7001210AAC4FF0FF0A017000F01CFBEC
S1135AB000F0ECFA3168024608462146FDF7F0FB97
S1135AC080B19DF828000B2860D8DFE800F0061AA2
S1135AD00E555F585F16275F305C0B9800F0B2FCE0
S1135AE054E000BF8DF828A050E00B99C86A002844
S1135AF04CD0C3680122984748E0012000F07AFCAA
S1135B0044E00B98002841D0C16A21B1016B11B166
S1135B10816A0E2955D2FFF757F937E00B9D2846C5
S1135B2002F0BAFA90B3286840F004001FE00B9D1D
S1135B30287AC0074FF018008DF8100007D1A86A22
S1135B40022100BA8DF811100690C5F82890288F0C
S1135B5004A900BA000CADF812002846182200234C
S1135B60A5F8389001F07AFB286840F0100028600E
S1135B70284601F007FD09E0FFF7E4FC06E00B9876
S1135B8003F0B8FD02E00B9801F052FCD8F80000D5
S1135B9000283FF48BAFC8F8009001F0AFF801E0A3
S1135BA001F0B2F800283FF481AF017F8907F7D5EF
S1135BB0054600F047FC297F284601F0FD012977BE
S1135BC0EEE7D0F824B09BF80C209BF80D3042EAA5
S1135BD00322082A18D04DF686539A4214D0B2F5FF
S1135BE0C16F98D12A2996D30546FFF71BF90346BE
S1135BF02846042B5CD0032BC8D0022B7FF48BAF38
S1135C00012100F087F9C1E72229FFF484AF082AB3
S1135C107FF481AF9BF80E203C2303EA8205142D08
S1135C20FFF479AF0E39A942FFF475AF9BF8171052
S1135C302A46CDE902100399584600F065FE034652
S1135C4003989BF80E10426A012B02F8061CD0D16F
S1135C50152D4FF001030FD39BF80C109BF80D206A
S1135C6041EA0221082907D1039800F021FF0346E5
S1135C700398002B3FF44FAF029D112D0ED1042B3E
S1135C8016D0112D5BD0062D4ED0012D7FF443AFDD
S1135C900398FFF755FD03460398AAE70398019379
S1135CA001F0CEF9DDE901350146039801291ED141
S1135CB09BF80C109BF80D2041EA0221082908D01A
S1135CC04DF6865291423FF426AFB1F5C16F7FF491
S1135CD022AF43F64C52C1F6FE72116800297FF4DC
S1135CE01AAF10604FF4FA6000F02CFB4EE79BF8FB
S1135CF00C109BF80D2041EA02210829BFD1594616
S1135D0011F81A2FA1F114004B7891F802C0C97848
S1135D1042EA03224CEA012142EA0141FFF7EAFB8D
S1135D20DDE901350398AAE703981D4602F016F849
S1135D30014603982B4601293FF428AF59E7416AED
S1135D40CDF810900A7B4B7B91F826C091F8275030
S1135D5042EA03234DF686524CEA052593424FF05E
S1135D602A022DBA08BF3E22082B4FEA154E0DD148
S1135D7091F810C04D7C6FF013034CEA05252DBA41
S1135D8003EB1545754501D2002332E7856A0023EC
S1135D90954228BFBEF1080FFFF42BAFAD1AAEF148
S1135DA008039D4284BF1A44826291F8222091F82C
S1135DB0233042EA0322828611F81ACF4B788D7879
S1135DC0CA784CEA032345EA022243EA02424261CA
S1135DD08A7AC97A42EA012104AA03F099FC0128CB
S1135DE002D10398032304E704980138B0FA80F041
S1135DF0400983000398FCE680B56F4682B044F600
S1135E001C11C1F6FE7109788DF8000000294FF0CD
S1135E100001019110D0072812D1012000F0EAFA04
S1135E2043F65050C1F6FE700068FDF7E1FB0146F1
S1135E30012029B102B080BD10B1002002B080BDA4
S1135E4000F0F4FA43F65050C1F6FE70006869465B
S1135E5000220023FDF7D2F802B080BD44F61C10E6
S1135E60C1F6FE7000787047A8B1017B427B41EA1D
S1135E7002214ABAB2F5C06F0DD9B1F5C16F01D094
S1135E80082908D1D0B502AF0021044600F08EFFE6
S1135E9018B10120D0BD002070474DF26E10C0F241
S1135EA000002146062203F097FD0028F1D04DF2B0
S1135EB05610C0F200002146062203F08DFD38B3CF
S1135EC04DF25C10C0F200002146062203F084FD6E
S1135ED0F0B14DF26210C0F200002146062203F038
S1135EE07BFDA8B14DF26810C0F2000021460622E5
S1135EF003F072FD60B12078012809D1607838B9C7
S1135F00A0785E2804D194F90300B0F1FF3FC0DC0F
S1135F100020D0BDF0B503AF2DE9000F85B00446D5
S1135F208346456A54F8300F88460021029108B32D
S1135F30297B6A7BD0F86C9041EA0220082831D191
S1135F402E4616F81E0FA7F1220A7178B278F3785C
S1135F5040EA012042EA032140EA0140029002A8FB
S1135F6051462246FFF7EAF85146012818BFA6F128
S1135F70180118E0287B697B40EA012008284BD1EE
S1135F80284610F81E1F42788378C07841EA02211F
S1135F9043EA002041EA004000F034FF002820607A
S1135FA0C6D139E0A91D2846062205F0D5F8206897
S1135FB0062200F13801A81D05F0CEF800F036FAEB
S1135FC0012806D1D9F80C3048465946424698472C
S1135FD022E0B8F1000F23D044F61C11C1F6FE7183
S1135FE00978022001298DF80000CDF804B010D101
S1135FF000F01CFA421E43F65050C1F6FE700068D1
S113600069464FF0000318BF4FF0FF32FCF7F6FF6C
S113601010B95846FEF7D8FE05B0BDE8000FF0BD34
